{"contracts/DEX.sol":{"DEX":{"abi":[{"inputs":[{"internalType":"address","name":"_tokenA","type":"address"},{"internalType":"address","name":"_tokenB","type":"address"}],"stateMutability":"nonpayable","type":"constructor"},{"anonymous":false,"inputs":[{"indexed":true,"internalType":"address","name":"provider","type":"address"},{"indexed":false,"internalType":"uint256","name":"amountA","type":"uint256"},{"indexed":false,"internalType":"uint256","name":"amountB","type":"uint256"},{"indexed":false,"internalType":"uint256","name":"liquidityMinted","type":"uint256"}],"name":"LiquidityAdded","type":"event"},{"anonymous":false,"inputs":[{"indexed":true,"internalType":"address","name":"provider","type":"address"},{"indexed":false,"internalType":"uint256","name":"amountA","type":"uint256"},{"indexed":false,"internalType":"uint256","name":"amountB","type":"uint256"},{"indexed":false,"internalType":"uint256","name":"liquidityBurned","type":"uint256"}],"name":"LiquidityRemoved","type":"event"},{"anonymous":false,"inputs":[{"indexed":true,"internalType":"address","name":"trader","type":"address"},{"indexed":true,"internalType":"address","name":"tokenIn","type":"address"},{"indexed":true,"internalType":"address","name":"tokenOut","type":"address"},{"indexed":false,"internalType":"uint256","name":"amountIn","type":"uint256"},{"indexed":false,"internalType":"uint256","name":"amountOut","type":"uint256"}],"name":"Swap","type":"event"},{"inputs":[{"internalType":"uint256","name":"amountA","type":"uint256"},{"internalType":"uint256","name":"amountB","type":"uint256"}],"name":"addLiquidity","outputs":[{"internalType":"uint256","name":"liquidityMinted","type":"uint256"}],"stateMutability":"nonpayable","type":"function"},{"inputs":[{"internalType":"uint256","name":"amountIn","type":"uint256"},{"internalType":"uint256","name":"reserveIn","type":"uint256"},{"internalType":"uint256","name":"reserveOut","type":"uint256"}],"name":"getAmountOut","outputs":[{"internalType":"uint256","name":"amountOut","type":"uint256"}],"stateMutability":"pure","type":"function"},{"inputs":[],"name":"getPrice","outputs":[{"internalType":"uint256","name":"price","type":"uint256"}],"stateMutability":"view","type":"function"},{"inputs":[],"name":"getReserves","outputs":[{"internalType":"uint256","name":"_reserveA","type":"uint256"},{"internalType":"uint256","name":"_reserveB","type":"uint256"}],"stateMutability":"view","type":"function"},{"inputs":[{"internalType":"address","name":"","type":"address"}],"name":"liquidity","outputs":[{"internalType":"uint256","name":"","type":"uint256"}],"stateMutability":"view","type":"function"},{"inputs":[{"internalType":"uint256","name":"liquidityAmount","type":"uint256"}],"name":"removeLiquidity","outputs":[{"internalType":"uint256","name":"amountA","type":"uint256"},{"internalType":"uint256","name":"amountB","type":"uint256"}],"stateMutability":"nonpayable","type":"function"},{"inputs":[],"name":"reserveA","outputs":[{"internalType":"uint256","name":"","type":"uint256"}],"stateMutability":"view","type":"function"},{"inputs":[],"name":"reserveB","outputs":[{"internalType":"uint256","name":"","type":"uint256"}],"stateMutability":"view","type":"function"},{"inputs":[{"internalType":"uint256","name":"amountAIn","type":"uint256"}],"name":"swapAForB","outputs":[{"internalType":"uint256","name":"amountBOut","type":"uint256"}],"stateMutability":"nonpayable","type":"function"},{"inputs":[{"internalType":"uint256","name":"amountBIn","type":"uint256"}],"name":"swapBForA","outputs":[{"internalType":"uint256","name":"amountAOut","type":"uint256"}],"stateMutability":"nonpayable","type":"function"},{"inputs":[],"name":"tokenA","outputs":[{"internalType":"address","name":"","type":"address"}],"stateMutability":"view","type":"function"},{"inputs":[],"name":"tokenB","outputs":[{"internalType":"address","name":"","type":"address"}],"stateMutability":"view","type":"function"},{"inputs":[],"name":"totalLiquidity","outputs":[{"internalType":"uint256","name":"","type":"uint256"}],"stateMutability":"view","type":"function"}],"evm":{"bytecode":{"linkReferences":{},"object":"60806040523480156200001157600080fd5b50604051620022ac380380620022ac833981810160405281019062000037919062000181565b6200005367769dbbbc91f6658460c01b6200011460201b60201c565b6200006f67f61a9b8f67aa68d960c01b6200011460201b60201c565b816000806101000a81548173ffffffffffffffffffffffffffffffffffffffff021916908373ffffffffffffffffffffffffffffffffffffffff160217905550620000cb6793e6380b585b905360c01b6200011460201b60201c565b80600160006101000a81548173ffffffffffffffffffffffffffffffffffffffff021916908373ffffffffffffffffffffffffffffffffffffffff1602179055505050620001c8565b50565b600080fd5b600073ffffffffffffffffffffffffffffffffffffffff82169050919050565b600062000149826200011c565b9050919050565b6200015b816200013c565b81146200016757600080fd5b50565b6000815190506200017b8162000150565b92915050565b600080604083850312156200019b576200019a62000117565b5b6000620001ab858286016200016a565b9250506020620001be858286016200016a565b9150509250929050565b6120d480620001d86000396000f3fe608060405234801561001057600080fd5b50600436106100cf5760003560e01c80635f64b55b1161008c5780639cd441da116100665780639cd441da1461021a578063b8c876b11461024a578063dc5fa6c51461027a578063e619a49814610298576100cf565b80635f64b55b146101ad57806398d5fdca146101cb5780639c8f9f23146101e9576100cf565b806303102091146100d4578063054d50d4146101045780630902f1ac146101345780630fc63d101461015357806315770f921461017157806319e36f3b1461018f575b600080fd5b6100ee60048036038101906100e9919061199c565b6102c8565b6040516100fb91906119d8565b60405180910390f35b61011e600480360381019061011991906119f3565b61066f565b60405161012b91906119d8565b60405180910390f35b61013c6108ae565b60405161014a929190611a46565b60405180910390f35b61015b6108fb565b6040516101689190611ab0565b60405180910390f35b61017961091f565b60405161018691906119d8565b60405180910390f35b610197610925565b6040516101a491906119d8565b60405180910390f35b6101b561092b565b6040516101c29190611ab0565b60405180910390f35b6101d3610951565b6040516101e091906119d8565b60405180910390f35b61020360048036038101906101fe919061199c565b610a39565b604051610211929190611a46565b60405180910390f35b610234600480360381019061022f9190611acb565b610e84565b60405161024191906119d8565b60405180910390f35b610264600480360381019061025f9190611b37565b6113a6565b60405161027191906119d8565b60405180910390f35b6102826113be565b60405161028f91906119d8565b60405180910390f35b6102b260048036038101906102ad919061199c565b6113c4565b6040516102bf91906119d8565b60405180910390f35b60006102de6785d64c18ff8d8a7d60c01b61176b565b6102f267f52c0d2f32cd995460c01b61176b565b610306675cfeecbb2d93f88060c01b61176b565b61031a671d7092769337191360c01b61176b565b6000821161035d576040517f08c379a000000000000000000000000000000000000000000000000000000000815260040161035490611bc1565b60405180910390fd5b610371677bb56b8c18f4a94f60c01b61176b565b6103856759eb3d07084b42e460c01b61176b565b6103948260025460035461066f565b90506103aa670daa4b39d8abd8e460c01b61176b565b6103be67f70e971661bcd01760c01b61176b565b60008054906101000a900473ffffffffffffffffffffffffffffffffffffffff1673ffffffffffffffffffffffffffffffffffffffff166323b872dd3330856040518463ffffffff1660e01b815260040161041b93929190611be1565b6020604051808303816000875af115801561043a573d6000803e3d6000fd5b505050506040513d601f19601f8201168201806040525081019061045e9190611c50565b506104736795b0f3e8214f8aa760c01b61176b565b61048767dc4365340c4e1faa60c01b61176b565b600160009054906101000a900473ffffffffffffffffffffffffffffffffffffffff1673ffffffffffffffffffffffffffffffffffffffff1663a9059cbb33836040518363ffffffff1660e01b81526004016104e4929190611c7d565b6020604051808303816000875af1158015610503573d6000803e3d6000fd5b505050506040513d601f19601f820116820180604052508101906105279190611c50565b5061053c67259c1911c828a29e60c01b61176b565b816002600082825461054e9190611cd5565b9250508190555061056967f1d93f327b20dffb60c01b61176b565b806003600082825461057b9190611d09565b9250508190555061059667cfe82e7358cdbd2460c01b61176b565b6105aa67e9dbbc2ca62da9e060c01b61176b565b600160009054906101000a900473ffffffffffffffffffffffffffffffffffffffff1673ffffffffffffffffffffffffffffffffffffffff1660008054906101000a900473ffffffffffffffffffffffffffffffffffffffff1673ffffffffffffffffffffffffffffffffffffffff163373ffffffffffffffffffffffffffffffffffffffff167fcd3829a3813dc3cdd188fd3d01dcf3268c16be2fdd2dd21d0665418816e460628585604051610662929190611a46565b60405180910390a4919050565b600061068567067a425dcfd0470960c01b61176b565b610699677946e6881e76482c60c01b61176b565b6106ad6742933e917bf0abca60c01b61176b565b6106c167f83b47a33e6c9f4060c01b61176b565b60008411610704576040517f08c379a00000000000000000000000000000000000000000000000000000000081526004016106fb90611d89565b60405180910390fd5b610718675a30b18d7fc7bb7b60c01b61176b565b61072c67fcb452cfc1a6cff860c01b61176b565b61074067d06d729a9a04fde460c01b61176b565b61075467db6acecbc5e5084560c01b61176b565b6000831180156107645750600082115b6107a3576040517f08c379a000000000000000000000000000000000000000000000000000000000815260040161079a90611df5565b60405180910390fd5b6107b767279750c859c2939960c01b61176b565b6107cb67ae494250a453df1d60c01b61176b565b6107df671bee71ff6463313e60c01b61176b565b60006103e5856107ef9190611e15565b905061080567a036195ab60a376a60c01b61176b565b610819677d1453d7a7e9e80660c01b61176b565b600083826108279190611e15565b905061083d67f7697f764b4db78c60c01b61176b565b61085167e482a1836b3cadc060c01b61176b565b6000826103e8876108629190611e15565b61086c9190611cd5565b905061088267af9bdef3e19623a660c01b61176b565b61089667baab9738106ec27d60c01b61176b565b80826108a29190611e86565b93505050509392505050565b6000806108c567a2d68bed5c6b232a60c01b61176b565b6108d9678cc444f0d34c3ec560c01b61176b565b6108ed67767a70917dc8ac0860c01b61176b565b600254600354915091509091565b60008054906101000a900473ffffffffffffffffffffffffffffffffffffffff1681565b60045481565b60035481565b600160009054906101000a900473ffffffffffffffffffffffffffffffffffffffff1681565b6000610967670601cdc9397c861860c01b61176b565b61097b67df167addc148b0c360c01b61176b565b61098f67f6d74be2aadc90b560c01b61176b565b6109a3673778813fd88e506760c01b61176b565b6000600254116109e8576040517f08c379a00000000000000000000000000000000000000000000000000000000081526004016109df90611f03565b60405180910390fd5b6109fc670c7a9ab3e5fb3f6960c01b61176b565b610a106768ba67865654c36560c01b61176b565b610a24675eb4d59ac1a9312760c01b61176b565b600254600354610a349190611e86565b905090565b600080610a5067508335bfaa5b98ec60c01b61176b565b610a646754f0114f8356aabc60c01b61176b565b610a786725f1864ac96ddbe060c01b61176b565b610a8c67211b47ae2fe4f6f560c01b61176b565b82600560003373ffffffffffffffffffffffffffffffffffffffff1673ffffffffffffffffffffffffffffffffffffffff168152602001908152602001600020541015610b0e576040517f08c379a0000000000000000000000000000000000000000000000000000000008152600401610b0590611f6f565b60405180910390fd5b610b2267701eb7eb00bc80b260c01b61176b565b610b3667fd7406c9ec7173fc60c01b61176b565b60045460025484610b479190611e15565b610b519190611e86565b9150610b67672f0eb5b3cc4aa65360c01b61176b565b60045460035484610b789190611e15565b610b829190611e86565b9050610b98671e41e6657e29967960c01b61176b565b82600560003373ffffffffffffffffffffffffffffffffffffffff1673ffffffffffffffffffffffffffffffffffffffff1681526020019081526020016000206000828254610be79190611d09565b92505081905550610c0267bc98eeb17617674460c01b61176b565b8260046000828254610c149190611d09565b92505081905550610c2f677eb17d4ed454eb7360c01b61176b565b8160026000828254610c419190611d09565b92505081905550610c5c674c67743ad8e9a26860c01b61176b565b8060036000828254610c6e9190611d09565b92505081905550610c89677d3e88ecf8f527d560c01b61176b565b610c9d67463eb9a174c765f760c01b61176b565b60008054906101000a900473ffffffffffffffffffffffffffffffffffffffff1673ffffffffffffffffffffffffffffffffffffffff1663a9059cbb33846040518363ffffffff1660e01b8152600401610cf8929190611c7d565b6020604051808303816000875af1158015610d17573d6000803e3d6000fd5b505050506040513d601f19601f82011682018060405250810190610d3b9190611c50565b50610d5067eb37fb900751964a60c01b61176b565b610d64671c665e0b0653d4d760c01b61176b565b600160009054906101000a900473ffffffffffffffffffffffffffffffffffffffff1673ffffffffffffffffffffffffffffffffffffffff1663a9059cbb33836040518363ffffffff1660e01b8152600401610dc1929190611c7d565b6020604051808303816000875af1158015610de0573d6000803e3d6000fd5b505050506040513d601f19601f82011682018060405250810190610e049190611c50565b50610e19675533cf8f28366d2860c01b61176b565b610e2d6777d70dddca2abaf860c01b61176b565b3373ffffffffffffffffffffffffffffffffffffffff167f1dc8bb69df2b8e91fbdcbfcf93d951b3f0000f085a95fe3f7946d6161439245d838386604051610e7793929190611f8f565b60405180910390a2915091565b6000610e9a67639ec9c0ffb0db9360c01b61176b565b610eae672a5b8c0257d8fd6060c01b61176b565b610ec267164e3596d50a7e5a60c01b61176b565b610ed6674f13450b5998b59160c01b61176b565b600083118015610ee65750600082115b610f25576040517f08c379a0000000000000000000000000000000000000000000000000000000008152600401610f1c90612012565b60405180910390fd5b610f3967d511d1c3bd28273760c01b61176b565b610f4d6739f76060a361ad5f60c01b61176b565b610f61672bbefb268bcd446460c01b61176b565b600060045403610fae57610f7f679343b798ed6f3cf360c01b61176b565b610f93674aca28c27bc289ab60c01b61176b565b610fa78284610fa29190611e15565b61176e565b90506110a1565b610fc267059e0ec891eeeaf160c01b61176b565b610fd667529ff306fa8feff460c01b61176b565b610fea67a675287ce7994e7260c01b61176b565b610ffe674aef41415d3c1e5260c01b61176b565b6002546003548461100f9190611e15565b6110199190611e86565b82101561105b576040517f08c379a00000000000000000000000000000000000000000000000000000000081526004016110529061207e565b60405180910390fd5b61106f672b9e188b26cd526160c01b61176b565b6110836725a0037ea835ee7160c01b61176b565b600254600454846110949190611e15565b61109e9190611e86565b90505b6110b567342194d934579a2460c01b61176b565b6110c967fa2b371ef79fc3b460c01b61176b565b60008054906101000a900473ffffffffffffffffffffffffffffffffffffffff1673ffffffffffffffffffffffffffffffffffffffff166323b872dd3330866040518463ffffffff1660e01b815260040161112693929190611be1565b6020604051808303816000875af1158015611145573d6000803e3d6000fd5b505050506040513d601f19601f820116820180604052508101906111699190611c50565b5061117e67f9707f55478b193160c01b61176b565b611192677be1a077613e458a60c01b61176b565b600160009054906101000a900473ffffffffffffffffffffffffffffffffffffffff1673ffffffffffffffffffffffffffffffffffffffff166323b872dd3330856040518463ffffffff1660e01b81526004016111f193929190611be1565b6020604051808303816000875af1158015611210573d6000803e3d6000fd5b505050506040513d601f19601f820116820180604052508101906112349190611c50565b5061124967840fe88b0b40989a60c01b61176b565b826002600082825461125b9190611cd5565b925050819055506112766729f45c5162adf15f60c01b61176b565b81600360008282546112889190611cd5565b925050819055506112a3675a0f75ed74c5559360c01b61176b565b80600460008282546112b59190611cd5565b925050819055506112d0671d3ab2e6b093e61360c01b61176b565b80600560003373ffffffffffffffffffffffffffffffffffffffff1673ffffffffffffffffffffffffffffffffffffffff168152602001908152602001600020600082825461131f9190611cd5565b9250508190555061133a6725d773cfd7e473f360c01b61176b565b61134e676ff830c2a093d7bf60c01b61176b565b3373ffffffffffffffffffffffffffffffffffffffff167f64b83944e79c3ce8d4c297411de637c3e102d064677aac0c163976ebdcd6f50e84848460405161139893929190611f8f565b60405180910390a292915050565b60056020528060005260406000206000915090505481565b60025481565b60006113da676f0c0b45b3ec44eb60c01b61176b565b6113ee67a12c51a2824c40ea60c01b61176b565b611402674eb4c1a791d9113e60c01b61176b565b61141667236a226d5f41c35d60c01b61176b565b60008211611459576040517f08c379a000000000000000000000000000000000000000000000000000000000815260040161145090611bc1565b60405180910390fd5b61146d678dc3760e4f8cfc9c60c01b61176b565b61148167a139cd31990393c160c01b61176b565b6114908260035460025461066f565b90506114a6673828f594650cedc960c01b61176b565b6114ba67f597d8b2ee58793a60c01b61176b565b600160009054906101000a900473ffffffffffffffffffffffffffffffffffffffff1673ffffffffffffffffffffffffffffffffffffffff166323b872dd3330856040518463ffffffff1660e01b815260040161151993929190611be1565b6020604051808303816000875af1158015611538573d6000803e3d6000fd5b505050506040513d601f19601f8201168201806040525081019061155c9190611c50565b506115716728635e9a3740872b60c01b61176b565b611585671877daf322bf06af60c01b61176b565b60008054906101000a900473ffffffffffffffffffffffffffffffffffffffff1673ffffffffffffffffffffffffffffffffffffffff1663a9059cbb33836040518363ffffffff1660e01b81526004016115e0929190611c7d565b6020604051808303816000875af11580156115ff573d6000803e3d6000fd5b505050506040513d601f19601f820116820180604052508101906116239190611c50565b506116386769e2d8d49ace2e9c60c01b61176b565b816003600082825461164a9190611cd5565b9250508190555061166567ff076705cd3d3dcd60c01b61176b565b80600260008282546116779190611d09565b92505081905550611692678e73c290d9ccb8d360c01b61176b565b6116a6676fcf2d6708b12ccf60c01b61176b565b60008054906101000a900473ffffffffffffffffffffffffffffffffffffffff1673ffffffffffffffffffffffffffffffffffffffff16600160009054906101000a900473ffffffffffffffffffffffffffffffffffffffff1673ffffffffffffffffffffffffffffffffffffffff163373ffffffffffffffffffffffffffffffffffffffff167fcd3829a3813dc3cdd188fd3d01dcf3268c16be2fdd2dd21d0665418816e46062858560405161175e929190611a46565b60405180910390a4919050565b50565b60008082036117805760009050611862565b6000600161178d84611867565b901c6001901b905060018184816117a7576117a6611e57565b5b048201901c905060018184816117c0576117bf611e57565b5b048201901c905060018184816117d9576117d8611e57565b5b048201901c905060018184816117f2576117f1611e57565b5b048201901c9050600181848161180b5761180a611e57565b5b048201901c9050600181848161182457611823611e57565b5b048201901c9050600181848161183d5761183c611e57565b5b048201901c905061185e8182858161185857611857611e57565b5b04611948565b9150505b919050565b600080600090506000608084901c111561188957608083901c92506080810190505b6000604084901c11156118a457604083901c92506040810190505b6000602084901c11156118bf57602083901c92506020810190505b6000601084901c11156118da57601083901c92506010810190505b6000600884901c11156118f557600883901c92506008810190505b6000600484901c111561191057600483901c92506004810190505b6000600284901c111561192b57600283901c92506002810190505b6000600184901c111561193f576001810190505b80915050919050565b60008183106119575781611959565b825b905092915050565b600080fd5b6000819050919050565b61197981611966565b811461198457600080fd5b50565b60008135905061199681611970565b92915050565b6000602082840312156119b2576119b1611961565b5b60006119c084828501611987565b91505092915050565b6119d281611966565b82525050565b60006020820190506119ed60008301846119c9565b92915050565b600080600060608486031215611a0c57611a0b611961565b5b6000611a1a86828701611987565b9350506020611a2b86828701611987565b9250506040611a3c86828701611987565b9150509250925092565b6000604082019050611a5b60008301856119c9565b611a6860208301846119c9565b9392505050565b600073ffffffffffffffffffffffffffffffffffffffff82169050919050565b6000611a9a82611a6f565b9050919050565b611aaa81611a8f565b82525050565b6000602082019050611ac56000830184611aa1565b92915050565b60008060408385031215611ae257611ae1611961565b5b6000611af085828601611987565b9250506020611b0185828601611987565b9150509250929050565b611b1481611a8f565b8114611b1f57600080fd5b50565b600081359050611b3181611b0b565b92915050565b600060208284031215611b4d57611b4c611961565b5b6000611b5b84828501611b22565b91505092915050565b600082825260208201905092915050565b7f416d6f756e74206d7573742062652067726561746572207468616e2030000000600082015250565b6000611bab601d83611b64565b9150611bb682611b75565b602082019050919050565b60006020820190508181036000830152611bda81611b9e565b9050919050565b6000606082019050611bf66000830186611aa1565b611c036020830185611aa1565b611c1060408301846119c9565b949350505050565b60008115159050919050565b611c2d81611c18565b8114611c3857600080fd5b50565b600081519050611c4a81611c24565b92915050565b600060208284031215611c6657611c65611961565b5b6000611c7484828501611c3b565b91505092915050565b6000604082019050611c926000830185611aa1565b611c9f60208301846119c9565b9392505050565b7f4e487b7100000000000000000000000000000000000000000000000000000000600052601160045260246000fd5b6000611ce082611966565b9150611ceb83611966565b9250828201905080821115611d0357611d02611ca6565b5b92915050565b6000611d1482611966565b9150611d1f83611966565b9250828203905081811115611d3757611d36611ca6565b5b92915050565b7f496e73756666696369656e7420696e70757420616d6f756e7400000000000000600082015250565b6000611d73601983611b64565b9150611d7e82611d3d565b602082019050919050565b60006020820190508181036000830152611da281611d66565b9050919050565b7f496e73756666696369656e74206c697175696469747900000000000000000000600082015250565b6000611ddf601683611b64565b9150611dea82611da9565b602082019050919050565b60006020820190508181036000830152611e0e81611dd2565b9050919050565b6000611e2082611966565b9150611e2b83611966565b9250828202611e3981611966565b91508282048414831517611e5057611e4f611ca6565b5b5092915050565b7f4e487b7100000000000000000000000000000000000000000000000000000000600052601260045260246000fd5b6000611e9182611966565b9150611e9c83611966565b925082611eac57611eab611e57565b5b828204905092915050565b7f5265736572766541206973203000000000000000000000000000000000000000600082015250565b6000611eed600d83611b64565b9150611ef882611eb7565b602082019050919050565b60006020820190508181036000830152611f1c81611ee0565b9050919050565b7f496e73756666696369656e74204c5020746f6b656e7300000000000000000000600082015250565b6000611f59601683611b64565b9150611f6482611f23565b602082019050919050565b60006020820190508181036000830152611f8881611f4c565b9050919050565b6000606082019050611fa460008301866119c9565b611fb160208301856119c9565b611fbe60408301846119c9565b949350505050565b7f416d6f756e7473206d7573742062652067726561746572207468616e20300000600082015250565b6000611ffc601e83611b64565b915061200782611fc6565b602082019050919050565b6000602082019050818103600083015261202b81611fef565b9050919050565b7f496e636f7272656374206c697175696469747920726174696f00000000000000600082015250565b6000612068601983611b64565b915061207382612032565b602082019050919050565b600060208201905081810360008301526120978161205b565b905091905056fea2646970667358221220d5b40bc6c2647672cdf21e5e68c268e8b25501edab7618e1665cdcbfe291ef8a64736f6c63430008130033","opcodes":"PUSH1 0x80 PUSH1 0x40 MSTORE CALLVALUE DUP1 ISZERO PUSH3 0x11 JUMPI PUSH1 0x0 DUP1 REVERT JUMPDEST POP PUSH1 0x40 MLOAD PUSH3 0x22AC CODESIZE SUB DUP1 PUSH3 0x22AC DUP4 CODECOPY DUP2 DUP2 ADD PUSH1 0x40 MSTORE DUP2 ADD SWAP1 PUSH3 0x37 SWAP2 SWAP1 PUSH3 0x181 JUMP JUMPDEST PUSH3 0x53 PUSH8 0x769DBBBC91F66584 PUSH1 0xC0 SHL PUSH3 0x114 PUSH1 0x20 SHL PUSH1 0x20 SHR JUMP JUMPDEST PUSH3 0x6F PUSH8 0xF61A9B8F67AA68D9 PUSH1 0xC0 SHL PUSH3 0x114 PUSH1 0x20 SHL PUSH1 0x20 SHR JUMP JUMPDEST DUP2 PUSH1 0x0 DUP1 PUSH2 0x100 EXP DUP2 SLOAD DUP2 PUSH20 0xFFFFFFFFFFFFFFFFFFFFFFFFFFFFFFFFFFFFFFFF MUL NOT AND SWAP1 DUP4 PUSH20 0xFFFFFFFFFFFFFFFFFFFFFFFFFFFFFFFFFFFFFFFF AND MUL OR SWAP1 SSTORE POP PUSH3 0xCB PUSH8 0x93E6380B585B9053 PUSH1 0xC0 SHL PUSH3 0x114 PUSH1 0x20 SHL PUSH1 0x20 SHR JUMP JUMPDEST DUP1 PUSH1 0x1 PUSH1 0x0 PUSH2 0x100 EXP DUP2 SLOAD DUP2 PUSH20 0xFFFFFFFFFFFFFFFFFFFFFFFFFFFFFFFFFFFFFFFF MUL NOT AND SWAP1 DUP4 PUSH20 0xFFFFFFFFFFFFFFFFFFFFFFFFFFFFFFFFFFFFFFFF AND MUL OR SWAP1 SSTORE POP POP POP PUSH3 0x1C8 JUMP JUMPDEST POP JUMP JUMPDEST PUSH1 0x0 DUP1 REVERT JUMPDEST PUSH1 0x0 PUSH20 0xFFFFFFFFFFFFFFFFFFFFFFFFFFFFFFFFFFFFFFFF DUP3 AND SWAP1 POP SWAP2 SWAP1 POP JUMP JUMPDEST PUSH1 0x0 PUSH3 0x149 DUP3 PUSH3 0x11C JUMP JUMPDEST SWAP1 POP SWAP2 SWAP1 POP JUMP JUMPDEST PUSH3 0x15B DUP2 PUSH3 0x13C JUMP JUMPDEST DUP2 EQ PUSH3 0x167 JUMPI PUSH1 0x0 DUP1 REVERT JUMPDEST POP JUMP JUMPDEST PUSH1 0x0 DUP2 MLOAD SWAP1 POP PUSH3 0x17B DUP2 PUSH3 0x150 JUMP JUMPDEST SWAP3 SWAP2 POP POP JUMP JUMPDEST PUSH1 0x0 DUP1 PUSH1 0x40 DUP4 DUP6 SUB SLT ISZERO PUSH3 0x19B JUMPI PUSH3 0x19A PUSH3 0x117 JUMP JUMPDEST JUMPDEST PUSH1 0x0 PUSH3 0x1AB DUP6 DUP3 DUP7 ADD PUSH3 0x16A JUMP JUMPDEST SWAP3 POP POP PUSH1 0x20 PUSH3 0x1BE DUP6 DUP3 DUP7 ADD PUSH3 0x16A JUMP JUMPDEST SWAP2 POP POP SWAP3 POP SWAP3 SWAP1 POP JUMP JUMPDEST PUSH2 0x20D4 DUP1 PUSH3 0x1D8 PUSH1 0x0 CODECOPY PUSH1 0x0 RETURN INVALID PUSH1 0x80 PUSH1 0x40 MSTORE CALLVALUE DUP1 ISZERO PUSH2 0x10 JUMPI PUSH1 0x0 DUP1 REVERT JUMPDEST POP PUSH1 0x4 CALLDATASIZE LT PUSH2 0xCF JUMPI PUSH1 0x0 CALLDATALOAD PUSH1 0xE0 SHR DUP1 PUSH4 0x5F64B55B GT PUSH2 0x8C JUMPI DUP1 PUSH4 0x9CD441DA GT PUSH2 0x66 JUMPI DUP1 PUSH4 0x9CD441DA EQ PUSH2 0x21A JUMPI DUP1 PUSH4 0xB8C876B1 EQ PUSH2 0x24A JUMPI DUP1 PUSH4 0xDC5FA6C5 EQ PUSH2 0x27A JUMPI DUP1 PUSH4 0xE619A498 EQ PUSH2 0x298 JUMPI PUSH2 0xCF JUMP JUMPDEST DUP1 PUSH4 0x5F64B55B EQ PUSH2 0x1AD JUMPI DUP1 PUSH4 0x98D5FDCA EQ PUSH2 0x1CB JUMPI DUP1 PUSH4 0x9C8F9F23 EQ PUSH2 0x1E9 JUMPI PUSH2 0xCF JUMP JUMPDEST DUP1 PUSH4 0x3102091 EQ PUSH2 0xD4 JUMPI DUP1 PUSH4 0x54D50D4 EQ PUSH2 0x104 JUMPI DUP1 PUSH4 0x902F1AC EQ PUSH2 0x134 JUMPI DUP1 PUSH4 0xFC63D10 EQ PUSH2 0x153 JUMPI DUP1 PUSH4 0x15770F92 EQ PUSH2 0x171 JUMPI DUP1 PUSH4 0x19E36F3B EQ PUSH2 0x18F JUMPI JUMPDEST PUSH1 0x0 DUP1 REVERT JUMPDEST PUSH2 0xEE PUSH1 0x4 DUP1 CALLDATASIZE SUB DUP2 ADD SWAP1 PUSH2 0xE9 SWAP2 SWAP1 PUSH2 0x199C JUMP JUMPDEST PUSH2 0x2C8 JUMP JUMPDEST PUSH1 0x40 MLOAD PUSH2 0xFB SWAP2 SWAP1 PUSH2 0x19D8 JUMP JUMPDEST PUSH1 0x40 MLOAD DUP1 SWAP2 SUB SWAP1 RETURN JUMPDEST PUSH2 0x11E PUSH1 0x4 DUP1 CALLDATASIZE SUB DUP2 ADD SWAP1 PUSH2 0x119 SWAP2 SWAP1 PUSH2 0x19F3 JUMP JUMPDEST PUSH2 0x66F JUMP JUMPDEST PUSH1 0x40 MLOAD PUSH2 0x12B SWAP2 SWAP1 PUSH2 0x19D8 JUMP JUMPDEST PUSH1 0x40 MLOAD DUP1 SWAP2 SUB SWAP1 RETURN JUMPDEST PUSH2 0x13C PUSH2 0x8AE JUMP JUMPDEST PUSH1 0x40 MLOAD PUSH2 0x14A SWAP3 SWAP2 SWAP1 PUSH2 0x1A46 JUMP JUMPDEST PUSH1 0x40 MLOAD DUP1 SWAP2 SUB SWAP1 RETURN JUMPDEST PUSH2 0x15B PUSH2 0x8FB JUMP JUMPDEST PUSH1 0x40 MLOAD PUSH2 0x168 SWAP2 SWAP1 PUSH2 0x1AB0 JUMP JUMPDEST PUSH1 0x40 MLOAD DUP1 SWAP2 SUB SWAP1 RETURN JUMPDEST PUSH2 0x179 PUSH2 0x91F JUMP JUMPDEST PUSH1 0x40 MLOAD PUSH2 0x186 SWAP2 SWAP1 PUSH2 0x19D8 JUMP JUMPDEST PUSH1 0x40 MLOAD DUP1 SWAP2 SUB SWAP1 RETURN JUMPDEST PUSH2 0x197 PUSH2 0x925 JUMP JUMPDEST PUSH1 0x40 MLOAD PUSH2 0x1A4 SWAP2 SWAP1 PUSH2 0x19D8 JUMP JUMPDEST PUSH1 0x40 MLOAD DUP1 SWAP2 SUB SWAP1 RETURN JUMPDEST PUSH2 0x1B5 PUSH2 0x92B JUMP JUMPDEST PUSH1 0x40 MLOAD PUSH2 0x1C2 SWAP2 SWAP1 PUSH2 0x1AB0 JUMP JUMPDEST PUSH1 0x40 MLOAD DUP1 SWAP2 SUB SWAP1 RETURN JUMPDEST PUSH2 0x1D3 PUSH2 0x951 JUMP JUMPDEST PUSH1 0x40 MLOAD PUSH2 0x1E0 SWAP2 SWAP1 PUSH2 0x19D8 JUMP JUMPDEST PUSH1 0x40 MLOAD DUP1 SWAP2 SUB SWAP1 RETURN JUMPDEST PUSH2 0x203 PUSH1 0x4 DUP1 CALLDATASIZE SUB DUP2 ADD SWAP1 PUSH2 0x1FE SWAP2 SWAP1 PUSH2 0x199C JUMP JUMPDEST PUSH2 0xA39 JUMP JUMPDEST PUSH1 0x40 MLOAD PUSH2 0x211 SWAP3 SWAP2 SWAP1 PUSH2 0x1A46 JUMP JUMPDEST PUSH1 0x40 MLOAD DUP1 SWAP2 SUB SWAP1 RETURN JUMPDEST PUSH2 0x234 PUSH1 0x4 DUP1 CALLDATASIZE SUB DUP2 ADD SWAP1 PUSH2 0x22F SWAP2 SWAP1 PUSH2 0x1ACB JUMP JUMPDEST PUSH2 0xE84 JUMP JUMPDEST PUSH1 0x40 MLOAD PUSH2 0x241 SWAP2 SWAP1 PUSH2 0x19D8 JUMP JUMPDEST PUSH1 0x40 MLOAD DUP1 SWAP2 SUB SWAP1 RETURN JUMPDEST PUSH2 0x264 PUSH1 0x4 DUP1 CALLDATASIZE SUB DUP2 ADD SWAP1 PUSH2 0x25F SWAP2 SWAP1 PUSH2 0x1B37 JUMP JUMPDEST PUSH2 0x13A6 JUMP JUMPDEST PUSH1 0x40 MLOAD PUSH2 0x271 SWAP2 SWAP1 PUSH2 0x19D8 JUMP JUMPDEST PUSH1 0x40 MLOAD DUP1 SWAP2 SUB SWAP1 RETURN JUMPDEST PUSH2 0x282 PUSH2 0x13BE JUMP JUMPDEST PUSH1 0x40 MLOAD PUSH2 0x28F SWAP2 SWAP1 PUSH2 0x19D8 JUMP JUMPDEST PUSH1 0x40 MLOAD DUP1 SWAP2 SUB SWAP1 RETURN JUMPDEST PUSH2 0x2B2 PUSH1 0x4 DUP1 CALLDATASIZE SUB DUP2 ADD SWAP1 PUSH2 0x2AD SWAP2 SWAP1 PUSH2 0x199C JUMP JUMPDEST PUSH2 0x13C4 JUMP JUMPDEST PUSH1 0x40 MLOAD PUSH2 0x2BF SWAP2 SWAP1 PUSH2 0x19D8 JUMP JUMPDEST PUSH1 0x40 MLOAD DUP1 SWAP2 SUB SWAP1 RETURN JUMPDEST PUSH1 0x0 PUSH2 0x2DE PUSH8 0x85D64C18FF8D8A7D PUSH1 0xC0 SHL PUSH2 0x176B JUMP JUMPDEST PUSH2 0x2F2 PUSH8 0xF52C0D2F32CD9954 PUSH1 0xC0 SHL PUSH2 0x176B JUMP JUMPDEST PUSH2 0x306 PUSH8 0x5CFEECBB2D93F880 PUSH1 0xC0 SHL PUSH2 0x176B JUMP JUMPDEST PUSH2 0x31A PUSH8 0x1D70927693371913 PUSH1 0xC0 SHL PUSH2 0x176B JUMP JUMPDEST PUSH1 0x0 DUP3 GT PUSH2 0x35D JUMPI PUSH1 0x40 MLOAD PUSH32 0x8C379A000000000000000000000000000000000000000000000000000000000 DUP2 MSTORE PUSH1 0x4 ADD PUSH2 0x354 SWAP1 PUSH2 0x1BC1 JUMP JUMPDEST PUSH1 0x40 MLOAD DUP1 SWAP2 SUB SWAP1 REVERT JUMPDEST PUSH2 0x371 PUSH8 0x7BB56B8C18F4A94F PUSH1 0xC0 SHL PUSH2 0x176B JUMP JUMPDEST PUSH2 0x385 PUSH8 0x59EB3D07084B42E4 PUSH1 0xC0 SHL PUSH2 0x176B JUMP JUMPDEST PUSH2 0x394 DUP3 PUSH1 0x2 SLOAD PUSH1 0x3 SLOAD PUSH2 0x66F JUMP JUMPDEST SWAP1 POP PUSH2 0x3AA PUSH8 0xDAA4B39D8ABD8E4 PUSH1 0xC0 SHL PUSH2 0x176B JUMP JUMPDEST PUSH2 0x3BE PUSH8 0xF70E971661BCD017 PUSH1 0xC0 SHL PUSH2 0x176B JUMP JUMPDEST PUSH1 0x0 DUP1 SLOAD SWAP1 PUSH2 0x100 EXP SWAP1 DIV PUSH20 0xFFFFFFFFFFFFFFFFFFFFFFFFFFFFFFFFFFFFFFFF AND PUSH20 0xFFFFFFFFFFFFFFFFFFFFFFFFFFFFFFFFFFFFFFFF AND PUSH4 0x23B872DD CALLER ADDRESS DUP6 PUSH1 0x40 MLOAD DUP5 PUSH4 0xFFFFFFFF AND PUSH1 0xE0 SHL DUP2 MSTORE PUSH1 0x4 ADD PUSH2 0x41B SWAP4 SWAP3 SWAP2 SWAP1 PUSH2 0x1BE1 JUMP JUMPDEST PUSH1 0x20 PUSH1 0x40 MLOAD DUP1 DUP4 SUB DUP2 PUSH1 0x0 DUP8 GAS CALL ISZERO DUP1 ISZERO PUSH2 0x43A JUMPI RETURNDATASIZE PUSH1 0x0 DUP1 RETURNDATACOPY RETURNDATASIZE PUSH1 0x0 REVERT JUMPDEST POP POP POP POP PUSH1 0x40 MLOAD RETURNDATASIZE PUSH1 0x1F NOT PUSH1 0x1F DUP3 ADD AND DUP3 ADD DUP1 PUSH1 0x40 MSTORE POP DUP2 ADD SWAP1 PUSH2 0x45E SWAP2 SWAP1 PUSH2 0x1C50 JUMP JUMPDEST POP PUSH2 0x473 PUSH8 0x95B0F3E8214F8AA7 PUSH1 0xC0 SHL PUSH2 0x176B JUMP JUMPDEST PUSH2 0x487 PUSH8 0xDC4365340C4E1FAA PUSH1 0xC0 SHL PUSH2 0x176B JUMP JUMPDEST PUSH1 0x1 PUSH1 0x0 SWAP1 SLOAD SWAP1 PUSH2 0x100 EXP SWAP1 DIV PUSH20 0xFFFFFFFFFFFFFFFFFFFFFFFFFFFFFFFFFFFFFFFF AND PUSH20 0xFFFFFFFFFFFFFFFFFFFFFFFFFFFFFFFFFFFFFFFF AND PUSH4 0xA9059CBB CALLER DUP4 PUSH1 0x40 MLOAD DUP4 PUSH4 0xFFFFFFFF AND PUSH1 0xE0 SHL DUP2 MSTORE PUSH1 0x4 ADD PUSH2 0x4E4 SWAP3 SWAP2 SWAP1 PUSH2 0x1C7D JUMP JUMPDEST PUSH1 0x20 PUSH1 0x40 MLOAD DUP1 DUP4 SUB DUP2 PUSH1 0x0 DUP8 GAS CALL ISZERO DUP1 ISZERO PUSH2 0x503 JUMPI RETURNDATASIZE PUSH1 0x0 DUP1 RETURNDATACOPY RETURNDATASIZE PUSH1 0x0 REVERT JUMPDEST POP POP POP POP PUSH1 0x40 MLOAD RETURNDATASIZE PUSH1 0x1F NOT PUSH1 0x1F DUP3 ADD AND DUP3 ADD DUP1 PUSH1 0x40 MSTORE POP DUP2 ADD SWAP1 PUSH2 0x527 SWAP2 SWAP1 PUSH2 0x1C50 JUMP JUMPDEST POP PUSH2 0x53C PUSH8 0x259C1911C828A29E PUSH1 0xC0 SHL PUSH2 0x176B JUMP JUMPDEST DUP2 PUSH1 0x2 PUSH1 0x0 DUP3 DUP3 SLOAD PUSH2 0x54E SWAP2 SWAP1 PUSH2 0x1CD5 JUMP JUMPDEST SWAP3 POP POP DUP2 SWAP1 SSTORE POP PUSH2 0x569 PUSH8 0xF1D93F327B20DFFB PUSH1 0xC0 SHL PUSH2 0x176B JUMP JUMPDEST DUP1 PUSH1 0x3 PUSH1 0x0 DUP3 DUP3 SLOAD PUSH2 0x57B SWAP2 SWAP1 PUSH2 0x1D09 JUMP JUMPDEST SWAP3 POP POP DUP2 SWAP1 SSTORE POP PUSH2 0x596 PUSH8 0xCFE82E7358CDBD24 PUSH1 0xC0 SHL PUSH2 0x176B JUMP JUMPDEST PUSH2 0x5AA PUSH8 0xE9DBBC2CA62DA9E0 PUSH1 0xC0 SHL PUSH2 0x176B JUMP JUMPDEST PUSH1 0x1 PUSH1 0x0 SWAP1 SLOAD SWAP1 PUSH2 0x100 EXP SWAP1 DIV PUSH20 0xFFFFFFFFFFFFFFFFFFFFFFFFFFFFFFFFFFFFFFFF AND PUSH20 0xFFFFFFFFFFFFFFFFFFFFFFFFFFFFFFFFFFFFFFFF AND PUSH1 0x0 DUP1 SLOAD SWAP1 PUSH2 0x100 EXP SWAP1 DIV PUSH20 0xFFFFFFFFFFFFFFFFFFFFFFFFFFFFFFFFFFFFFFFF AND PUSH20 0xFFFFFFFFFFFFFFFFFFFFFFFFFFFFFFFFFFFFFFFF AND CALLER PUSH20 0xFFFFFFFFFFFFFFFFFFFFFFFFFFFFFFFFFFFFFFFF AND PUSH32 0xCD3829A3813DC3CDD188FD3D01DCF3268C16BE2FDD2DD21D0665418816E46062 DUP6 DUP6 PUSH1 0x40 MLOAD PUSH2 0x662 SWAP3 SWAP2 SWAP1 PUSH2 0x1A46 JUMP JUMPDEST PUSH1 0x40 MLOAD DUP1 SWAP2 SUB SWAP1 LOG4 SWAP2 SWAP1 POP JUMP JUMPDEST PUSH1 0x0 PUSH2 0x685 PUSH8 0x67A425DCFD04709 PUSH1 0xC0 SHL PUSH2 0x176B JUMP JUMPDEST PUSH2 0x699 PUSH8 0x7946E6881E76482C PUSH1 0xC0 SHL PUSH2 0x176B JUMP JUMPDEST PUSH2 0x6AD PUSH8 0x42933E917BF0ABCA PUSH1 0xC0 SHL PUSH2 0x176B JUMP JUMPDEST PUSH2 0x6C1 PUSH8 0xF83B47A33E6C9F40 PUSH1 0xC0 SHL PUSH2 0x176B JUMP JUMPDEST PUSH1 0x0 DUP5 GT PUSH2 0x704 JUMPI PUSH1 0x40 MLOAD PUSH32 0x8C379A000000000000000000000000000000000000000000000000000000000 DUP2 MSTORE PUSH1 0x4 ADD PUSH2 0x6FB SWAP1 PUSH2 0x1D89 JUMP JUMPDEST PUSH1 0x40 MLOAD DUP1 SWAP2 SUB SWAP1 REVERT JUMPDEST PUSH2 0x718 PUSH8 0x5A30B18D7FC7BB7B PUSH1 0xC0 SHL PUSH2 0x176B JUMP JUMPDEST PUSH2 0x72C PUSH8 0xFCB452CFC1A6CFF8 PUSH1 0xC0 SHL PUSH2 0x176B JUMP JUMPDEST PUSH2 0x740 PUSH8 0xD06D729A9A04FDE4 PUSH1 0xC0 SHL PUSH2 0x176B JUMP JUMPDEST PUSH2 0x754 PUSH8 0xDB6ACECBC5E50845 PUSH1 0xC0 SHL PUSH2 0x176B JUMP JUMPDEST PUSH1 0x0 DUP4 GT DUP1 ISZERO PUSH2 0x764 JUMPI POP PUSH1 0x0 DUP3 GT JUMPDEST PUSH2 0x7A3 JUMPI PUSH1 0x40 MLOAD PUSH32 0x8C379A000000000000000000000000000000000000000000000000000000000 DUP2 MSTORE PUSH1 0x4 ADD PUSH2 0x79A SWAP1 PUSH2 0x1DF5 JUMP JUMPDEST PUSH1 0x40 MLOAD DUP1 SWAP2 SUB SWAP1 REVERT JUMPDEST PUSH2 0x7B7 PUSH8 0x279750C859C29399 PUSH1 0xC0 SHL PUSH2 0x176B JUMP JUMPDEST PUSH2 0x7CB PUSH8 0xAE494250A453DF1D PUSH1 0xC0 SHL PUSH2 0x176B JUMP JUMPDEST PUSH2 0x7DF PUSH8 0x1BEE71FF6463313E PUSH1 0xC0 SHL PUSH2 0x176B JUMP JUMPDEST PUSH1 0x0 PUSH2 0x3E5 DUP6 PUSH2 0x7EF SWAP2 SWAP1 PUSH2 0x1E15 JUMP JUMPDEST SWAP1 POP PUSH2 0x805 PUSH8 0xA036195AB60A376A PUSH1 0xC0 SHL PUSH2 0x176B JUMP JUMPDEST PUSH2 0x819 PUSH8 0x7D1453D7A7E9E806 PUSH1 0xC0 SHL PUSH2 0x176B JUMP JUMPDEST PUSH1 0x0 DUP4 DUP3 PUSH2 0x827 SWAP2 SWAP1 PUSH2 0x1E15 JUMP JUMPDEST SWAP1 POP PUSH2 0x83D PUSH8 0xF7697F764B4DB78C PUSH1 0xC0 SHL PUSH2 0x176B JUMP JUMPDEST PUSH2 0x851 PUSH8 0xE482A1836B3CADC0 PUSH1 0xC0 SHL PUSH2 0x176B JUMP JUMPDEST PUSH1 0x0 DUP3 PUSH2 0x3E8 DUP8 PUSH2 0x862 SWAP2 SWAP1 PUSH2 0x1E15 JUMP JUMPDEST PUSH2 0x86C SWAP2 SWAP1 PUSH2 0x1CD5 JUMP JUMPDEST SWAP1 POP PUSH2 0x882 PUSH8 0xAF9BDEF3E19623A6 PUSH1 0xC0 SHL PUSH2 0x176B JUMP JUMPDEST PUSH2 0x896 PUSH8 0xBAAB9738106EC27D PUSH1 0xC0 SHL PUSH2 0x176B JUMP JUMPDEST DUP1 DUP3 PUSH2 0x8A2 SWAP2 SWAP1 PUSH2 0x1E86 JUMP JUMPDEST SWAP4 POP POP POP POP SWAP4 SWAP3 POP POP POP JUMP JUMPDEST PUSH1 0x0 DUP1 PUSH2 0x8C5 PUSH8 0xA2D68BED5C6B232A PUSH1 0xC0 SHL PUSH2 0x176B JUMP JUMPDEST PUSH2 0x8D9 PUSH8 0x8CC444F0D34C3EC5 PUSH1 0xC0 SHL PUSH2 0x176B JUMP JUMPDEST PUSH2 0x8ED PUSH8 0x767A70917DC8AC08 PUSH1 0xC0 SHL PUSH2 0x176B JUMP JUMPDEST PUSH1 0x2 SLOAD PUSH1 0x3 SLOAD SWAP2 POP SWAP2 POP SWAP1 SWAP2 JUMP JUMPDEST PUSH1 0x0 DUP1 SLOAD SWAP1 PUSH2 0x100 EXP SWAP1 DIV PUSH20 0xFFFFFFFFFFFFFFFFFFFFFFFFFFFFFFFFFFFFFFFF AND DUP2 JUMP JUMPDEST PUSH1 0x4 SLOAD DUP2 JUMP JUMPDEST PUSH1 0x3 SLOAD DUP2 JUMP JUMPDEST PUSH1 0x1 PUSH1 0x0 SWAP1 SLOAD SWAP1 PUSH2 0x100 EXP SWAP1 DIV PUSH20 0xFFFFFFFFFFFFFFFFFFFFFFFFFFFFFFFFFFFFFFFF AND DUP2 JUMP JUMPDEST PUSH1 0x0 PUSH2 0x967 PUSH8 0x601CDC9397C8618 PUSH1 0xC0 SHL PUSH2 0x176B JUMP JUMPDEST PUSH2 0x97B PUSH8 0xDF167ADDC148B0C3 PUSH1 0xC0 SHL PUSH2 0x176B JUMP JUMPDEST PUSH2 0x98F PUSH8 0xF6D74BE2AADC90B5 PUSH1 0xC0 SHL PUSH2 0x176B JUMP JUMPDEST PUSH2 0x9A3 PUSH8 0x3778813FD88E5067 PUSH1 0xC0 SHL PUSH2 0x176B JUMP JUMPDEST PUSH1 0x0 PUSH1 0x2 SLOAD GT PUSH2 0x9E8 JUMPI PUSH1 0x40 MLOAD PUSH32 0x8C379A000000000000000000000000000000000000000000000000000000000 DUP2 MSTORE PUSH1 0x4 ADD PUSH2 0x9DF SWAP1 PUSH2 0x1F03 JUMP JUMPDEST PUSH1 0x40 MLOAD DUP1 SWAP2 SUB SWAP1 REVERT JUMPDEST PUSH2 0x9FC PUSH8 0xC7A9AB3E5FB3F69 PUSH1 0xC0 SHL PUSH2 0x176B JUMP JUMPDEST PUSH2 0xA10 PUSH8 0x68BA67865654C365 PUSH1 0xC0 SHL PUSH2 0x176B JUMP JUMPDEST PUSH2 0xA24 PUSH8 0x5EB4D59AC1A93127 PUSH1 0xC0 SHL PUSH2 0x176B JUMP JUMPDEST PUSH1 0x2 SLOAD PUSH1 0x3 SLOAD PUSH2 0xA34 SWAP2 SWAP1 PUSH2 0x1E86 JUMP JUMPDEST SWAP1 POP SWAP1 JUMP JUMPDEST PUSH1 0x0 DUP1 PUSH2 0xA50 PUSH8 0x508335BFAA5B98EC PUSH1 0xC0 SHL PUSH2 0x176B JUMP JUMPDEST PUSH2 0xA64 PUSH8 0x54F0114F8356AABC PUSH1 0xC0 SHL PUSH2 0x176B JUMP JUMPDEST PUSH2 0xA78 PUSH8 0x25F1864AC96DDBE0 PUSH1 0xC0 SHL PUSH2 0x176B JUMP JUMPDEST PUSH2 0xA8C PUSH8 0x211B47AE2FE4F6F5 PUSH1 0xC0 SHL PUSH2 0x176B JUMP JUMPDEST DUP3 PUSH1 0x5 PUSH1 0x0 CALLER PUSH20 0xFFFFFFFFFFFFFFFFFFFFFFFFFFFFFFFFFFFFFFFF AND PUSH20 0xFFFFFFFFFFFFFFFFFFFFFFFFFFFFFFFFFFFFFFFF AND DUP2 MSTORE PUSH1 0x20 ADD SWAP1 DUP2 MSTORE PUSH1 0x20 ADD PUSH1 0x0 KECCAK256 SLOAD LT ISZERO PUSH2 0xB0E JUMPI PUSH1 0x40 MLOAD PUSH32 0x8C379A000000000000000000000000000000000000000000000000000000000 DUP2 MSTORE PUSH1 0x4 ADD PUSH2 0xB05 SWAP1 PUSH2 0x1F6F JUMP JUMPDEST PUSH1 0x40 MLOAD DUP1 SWAP2 SUB SWAP1 REVERT JUMPDEST PUSH2 0xB22 PUSH8 0x701EB7EB00BC80B2 PUSH1 0xC0 SHL PUSH2 0x176B JUMP JUMPDEST PUSH2 0xB36 PUSH8 0xFD7406C9EC7173FC PUSH1 0xC0 SHL PUSH2 0x176B JUMP JUMPDEST PUSH1 0x4 SLOAD PUSH1 0x2 SLOAD DUP5 PUSH2 0xB47 SWAP2 SWAP1 PUSH2 0x1E15 JUMP JUMPDEST PUSH2 0xB51 SWAP2 SWAP1 PUSH2 0x1E86 JUMP JUMPDEST SWAP2 POP PUSH2 0xB67 PUSH8 0x2F0EB5B3CC4AA653 PUSH1 0xC0 SHL PUSH2 0x176B JUMP JUMPDEST PUSH1 0x4 SLOAD PUSH1 0x3 SLOAD DUP5 PUSH2 0xB78 SWAP2 SWAP1 PUSH2 0x1E15 JUMP JUMPDEST PUSH2 0xB82 SWAP2 SWAP1 PUSH2 0x1E86 JUMP JUMPDEST SWAP1 POP PUSH2 0xB98 PUSH8 0x1E41E6657E299679 PUSH1 0xC0 SHL PUSH2 0x176B JUMP JUMPDEST DUP3 PUSH1 0x5 PUSH1 0x0 CALLER PUSH20 0xFFFFFFFFFFFFFFFFFFFFFFFFFFFFFFFFFFFFFFFF AND PUSH20 0xFFFFFFFFFFFFFFFFFFFFFFFFFFFFFFFFFFFFFFFF AND DUP2 MSTORE PUSH1 0x20 ADD SWAP1 DUP2 MSTORE PUSH1 0x20 ADD PUSH1 0x0 KECCAK256 PUSH1 0x0 DUP3 DUP3 SLOAD PUSH2 0xBE7 SWAP2 SWAP1 PUSH2 0x1D09 JUMP JUMPDEST SWAP3 POP POP DUP2 SWAP1 SSTORE POP PUSH2 0xC02 PUSH8 0xBC98EEB176176744 PUSH1 0xC0 SHL PUSH2 0x176B JUMP JUMPDEST DUP3 PUSH1 0x4 PUSH1 0x0 DUP3 DUP3 SLOAD PUSH2 0xC14 SWAP2 SWAP1 PUSH2 0x1D09 JUMP JUMPDEST SWAP3 POP POP DUP2 SWAP1 SSTORE POP PUSH2 0xC2F PUSH8 0x7EB17D4ED454EB73 PUSH1 0xC0 SHL PUSH2 0x176B JUMP JUMPDEST DUP2 PUSH1 0x2 PUSH1 0x0 DUP3 DUP3 SLOAD PUSH2 0xC41 SWAP2 SWAP1 PUSH2 0x1D09 JUMP JUMPDEST SWAP3 POP POP DUP2 SWAP1 SSTORE POP PUSH2 0xC5C PUSH8 0x4C67743AD8E9A268 PUSH1 0xC0 SHL PUSH2 0x176B JUMP JUMPDEST DUP1 PUSH1 0x3 PUSH1 0x0 DUP3 DUP3 SLOAD PUSH2 0xC6E SWAP2 SWAP1 PUSH2 0x1D09 JUMP JUMPDEST SWAP3 POP POP DUP2 SWAP1 SSTORE POP PUSH2 0xC89 PUSH8 0x7D3E88ECF8F527D5 PUSH1 0xC0 SHL PUSH2 0x176B JUMP JUMPDEST PUSH2 0xC9D PUSH8 0x463EB9A174C765F7 PUSH1 0xC0 SHL PUSH2 0x176B JUMP JUMPDEST PUSH1 0x0 DUP1 SLOAD SWAP1 PUSH2 0x100 EXP SWAP1 DIV PUSH20 0xFFFFFFFFFFFFFFFFFFFFFFFFFFFFFFFFFFFFFFFF AND PUSH20 0xFFFFFFFFFFFFFFFFFFFFFFFFFFFFFFFFFFFFFFFF AND PUSH4 0xA9059CBB CALLER DUP5 PUSH1 0x40 MLOAD DUP4 PUSH4 0xFFFFFFFF AND PUSH1 0xE0 SHL DUP2 MSTORE PUSH1 0x4 ADD PUSH2 0xCF8 SWAP3 SWAP2 SWAP1 PUSH2 0x1C7D JUMP JUMPDEST PUSH1 0x20 PUSH1 0x40 MLOAD DUP1 DUP4 SUB DUP2 PUSH1 0x0 DUP8 GAS CALL ISZERO DUP1 ISZERO PUSH2 0xD17 JUMPI RETURNDATASIZE PUSH1 0x0 DUP1 RETURNDATACOPY RETURNDATASIZE PUSH1 0x0 REVERT JUMPDEST POP POP POP POP PUSH1 0x40 MLOAD RETURNDATASIZE PUSH1 0x1F NOT PUSH1 0x1F DUP3 ADD AND DUP3 ADD DUP1 PUSH1 0x40 MSTORE POP DUP2 ADD SWAP1 PUSH2 0xD3B SWAP2 SWAP1 PUSH2 0x1C50 JUMP JUMPDEST POP PUSH2 0xD50 PUSH8 0xEB37FB900751964A PUSH1 0xC0 SHL PUSH2 0x176B JUMP JUMPDEST PUSH2 0xD64 PUSH8 0x1C665E0B0653D4D7 PUSH1 0xC0 SHL PUSH2 0x176B JUMP JUMPDEST PUSH1 0x1 PUSH1 0x0 SWAP1 SLOAD SWAP1 PUSH2 0x100 EXP SWAP1 DIV PUSH20 0xFFFFFFFFFFFFFFFFFFFFFFFFFFFFFFFFFFFFFFFF AND PUSH20 0xFFFFFFFFFFFFFFFFFFFFFFFFFFFFFFFFFFFFFFFF AND PUSH4 0xA9059CBB CALLER DUP4 PUSH1 0x40 MLOAD DUP4 PUSH4 0xFFFFFFFF AND PUSH1 0xE0 SHL DUP2 MSTORE PUSH1 0x4 ADD PUSH2 0xDC1 SWAP3 SWAP2 SWAP1 PUSH2 0x1C7D JUMP JUMPDEST PUSH1 0x20 PUSH1 0x40 MLOAD DUP1 DUP4 SUB DUP2 PUSH1 0x0 DUP8 GAS CALL ISZERO DUP1 ISZERO PUSH2 0xDE0 JUMPI RETURNDATASIZE PUSH1 0x0 DUP1 RETURNDATACOPY RETURNDATASIZE PUSH1 0x0 REVERT JUMPDEST POP POP POP POP PUSH1 0x40 MLOAD RETURNDATASIZE PUSH1 0x1F NOT PUSH1 0x1F DUP3 ADD AND DUP3 ADD DUP1 PUSH1 0x40 MSTORE POP DUP2 ADD SWAP1 PUSH2 0xE04 SWAP2 SWAP1 PUSH2 0x1C50 JUMP JUMPDEST POP PUSH2 0xE19 PUSH8 0x5533CF8F28366D28 PUSH1 0xC0 SHL PUSH2 0x176B JUMP JUMPDEST PUSH2 0xE2D PUSH8 0x77D70DDDCA2ABAF8 PUSH1 0xC0 SHL PUSH2 0x176B JUMP JUMPDEST CALLER PUSH20 0xFFFFFFFFFFFFFFFFFFFFFFFFFFFFFFFFFFFFFFFF AND PUSH32 0x1DC8BB69DF2B8E91FBDCBFCF93D951B3F0000F085A95FE3F7946D6161439245D DUP4 DUP4 DUP7 PUSH1 0x40 MLOAD PUSH2 0xE77 SWAP4 SWAP3 SWAP2 SWAP1 PUSH2 0x1F8F JUMP JUMPDEST PUSH1 0x40 MLOAD DUP1 SWAP2 SUB SWAP1 LOG2 SWAP2 POP SWAP2 JUMP JUMPDEST PUSH1 0x0 PUSH2 0xE9A PUSH8 0x639EC9C0FFB0DB93 PUSH1 0xC0 SHL PUSH2 0x176B JUMP JUMPDEST PUSH2 0xEAE PUSH8 0x2A5B8C0257D8FD60 PUSH1 0xC0 SHL PUSH2 0x176B JUMP JUMPDEST PUSH2 0xEC2 PUSH8 0x164E3596D50A7E5A PUSH1 0xC0 SHL PUSH2 0x176B JUMP JUMPDEST PUSH2 0xED6 PUSH8 0x4F13450B5998B591 PUSH1 0xC0 SHL PUSH2 0x176B JUMP JUMPDEST PUSH1 0x0 DUP4 GT DUP1 ISZERO PUSH2 0xEE6 JUMPI POP PUSH1 0x0 DUP3 GT JUMPDEST PUSH2 0xF25 JUMPI PUSH1 0x40 MLOAD PUSH32 0x8C379A000000000000000000000000000000000000000000000000000000000 DUP2 MSTORE PUSH1 0x4 ADD PUSH2 0xF1C SWAP1 PUSH2 0x2012 JUMP JUMPDEST PUSH1 0x40 MLOAD DUP1 SWAP2 SUB SWAP1 REVERT JUMPDEST PUSH2 0xF39 PUSH8 0xD511D1C3BD282737 PUSH1 0xC0 SHL PUSH2 0x176B JUMP JUMPDEST PUSH2 0xF4D PUSH8 0x39F76060A361AD5F PUSH1 0xC0 SHL PUSH2 0x176B JUMP JUMPDEST PUSH2 0xF61 PUSH8 0x2BBEFB268BCD4464 PUSH1 0xC0 SHL PUSH2 0x176B JUMP JUMPDEST PUSH1 0x0 PUSH1 0x4 SLOAD SUB PUSH2 0xFAE JUMPI PUSH2 0xF7F PUSH8 0x9343B798ED6F3CF3 PUSH1 0xC0 SHL PUSH2 0x176B JUMP JUMPDEST PUSH2 0xF93 PUSH8 0x4ACA28C27BC289AB PUSH1 0xC0 SHL PUSH2 0x176B JUMP JUMPDEST PUSH2 0xFA7 DUP3 DUP5 PUSH2 0xFA2 SWAP2 SWAP1 PUSH2 0x1E15 JUMP JUMPDEST PUSH2 0x176E JUMP JUMPDEST SWAP1 POP PUSH2 0x10A1 JUMP JUMPDEST PUSH2 0xFC2 PUSH8 0x59E0EC891EEEAF1 PUSH1 0xC0 SHL PUSH2 0x176B JUMP JUMPDEST PUSH2 0xFD6 PUSH8 0x529FF306FA8FEFF4 PUSH1 0xC0 SHL PUSH2 0x176B JUMP JUMPDEST PUSH2 0xFEA PUSH8 0xA675287CE7994E72 PUSH1 0xC0 SHL PUSH2 0x176B JUMP JUMPDEST PUSH2 0xFFE PUSH8 0x4AEF41415D3C1E52 PUSH1 0xC0 SHL PUSH2 0x176B JUMP JUMPDEST PUSH1 0x2 SLOAD PUSH1 0x3 SLOAD DUP5 PUSH2 0x100F SWAP2 SWAP1 PUSH2 0x1E15 JUMP JUMPDEST PUSH2 0x1019 SWAP2 SWAP1 PUSH2 0x1E86 JUMP JUMPDEST DUP3 LT ISZERO PUSH2 0x105B JUMPI PUSH1 0x40 MLOAD PUSH32 0x8C379A000000000000000000000000000000000000000000000000000000000 DUP2 MSTORE PUSH1 0x4 ADD PUSH2 0x1052 SWAP1 PUSH2 0x207E JUMP JUMPDEST PUSH1 0x40 MLOAD DUP1 SWAP2 SUB SWAP1 REVERT JUMPDEST PUSH2 0x106F PUSH8 0x2B9E188B26CD5261 PUSH1 0xC0 SHL PUSH2 0x176B JUMP JUMPDEST PUSH2 0x1083 PUSH8 0x25A0037EA835EE71 PUSH1 0xC0 SHL PUSH2 0x176B JUMP JUMPDEST PUSH1 0x2 SLOAD PUSH1 0x4 SLOAD DUP5 PUSH2 0x1094 SWAP2 SWAP1 PUSH2 0x1E15 JUMP JUMPDEST PUSH2 0x109E SWAP2 SWAP1 PUSH2 0x1E86 JUMP JUMPDEST SWAP1 POP JUMPDEST PUSH2 0x10B5 PUSH8 0x342194D934579A24 PUSH1 0xC0 SHL PUSH2 0x176B JUMP JUMPDEST PUSH2 0x10C9 PUSH8 0xFA2B371EF79FC3B4 PUSH1 0xC0 SHL PUSH2 0x176B JUMP JUMPDEST PUSH1 0x0 DUP1 SLOAD SWAP1 PUSH2 0x100 EXP SWAP1 DIV PUSH20 0xFFFFFFFFFFFFFFFFFFFFFFFFFFFFFFFFFFFFFFFF AND PUSH20 0xFFFFFFFFFFFFFFFFFFFFFFFFFFFFFFFFFFFFFFFF AND PUSH4 0x23B872DD CALLER ADDRESS DUP7 PUSH1 0x40 MLOAD DUP5 PUSH4 0xFFFFFFFF AND PUSH1 0xE0 SHL DUP2 MSTORE PUSH1 0x4 ADD PUSH2 0x1126 SWAP4 SWAP3 SWAP2 SWAP1 PUSH2 0x1BE1 JUMP JUMPDEST PUSH1 0x20 PUSH1 0x40 MLOAD DUP1 DUP4 SUB DUP2 PUSH1 0x0 DUP8 GAS CALL ISZERO DUP1 ISZERO PUSH2 0x1145 JUMPI RETURNDATASIZE PUSH1 0x0 DUP1 RETURNDATACOPY RETURNDATASIZE PUSH1 0x0 REVERT JUMPDEST POP POP POP POP PUSH1 0x40 MLOAD RETURNDATASIZE PUSH1 0x1F NOT PUSH1 0x1F DUP3 ADD AND DUP3 ADD DUP1 PUSH1 0x40 MSTORE POP DUP2 ADD SWAP1 PUSH2 0x1169 SWAP2 SWAP1 PUSH2 0x1C50 JUMP JUMPDEST POP PUSH2 0x117E PUSH8 0xF9707F55478B1931 PUSH1 0xC0 SHL PUSH2 0x176B JUMP JUMPDEST PUSH2 0x1192 PUSH8 0x7BE1A077613E458A PUSH1 0xC0 SHL PUSH2 0x176B JUMP JUMPDEST PUSH1 0x1 PUSH1 0x0 SWAP1 SLOAD SWAP1 PUSH2 0x100 EXP SWAP1 DIV PUSH20 0xFFFFFFFFFFFFFFFFFFFFFFFFFFFFFFFFFFFFFFFF AND PUSH20 0xFFFFFFFFFFFFFFFFFFFFFFFFFFFFFFFFFFFFFFFF AND PUSH4 0x23B872DD CALLER ADDRESS DUP6 PUSH1 0x40 MLOAD DUP5 PUSH4 0xFFFFFFFF AND PUSH1 0xE0 SHL DUP2 MSTORE PUSH1 0x4 ADD PUSH2 0x11F1 SWAP4 SWAP3 SWAP2 SWAP1 PUSH2 0x1BE1 JUMP JUMPDEST PUSH1 0x20 PUSH1 0x40 MLOAD DUP1 DUP4 SUB DUP2 PUSH1 0x0 DUP8 GAS CALL ISZERO DUP1 ISZERO PUSH2 0x1210 JUMPI RETURNDATASIZE PUSH1 0x0 DUP1 RETURNDATACOPY RETURNDATASIZE PUSH1 0x0 REVERT JUMPDEST POP POP POP POP PUSH1 0x40 MLOAD RETURNDATASIZE PUSH1 0x1F NOT PUSH1 0x1F DUP3 ADD AND DUP3 ADD DUP1 PUSH1 0x40 MSTORE POP DUP2 ADD SWAP1 PUSH2 0x1234 SWAP2 SWAP1 PUSH2 0x1C50 JUMP JUMPDEST POP PUSH2 0x1249 PUSH8 0x840FE88B0B40989A PUSH1 0xC0 SHL PUSH2 0x176B JUMP JUMPDEST DUP3 PUSH1 0x2 PUSH1 0x0 DUP3 DUP3 SLOAD PUSH2 0x125B SWAP2 SWAP1 PUSH2 0x1CD5 JUMP JUMPDEST SWAP3 POP POP DUP2 SWAP1 SSTORE POP PUSH2 0x1276 PUSH8 0x29F45C5162ADF15F PUSH1 0xC0 SHL PUSH2 0x176B JUMP JUMPDEST DUP2 PUSH1 0x3 PUSH1 0x0 DUP3 DUP3 SLOAD PUSH2 0x1288 SWAP2 SWAP1 PUSH2 0x1CD5 JUMP JUMPDEST SWAP3 POP POP DUP2 SWAP1 SSTORE POP PUSH2 0x12A3 PUSH8 0x5A0F75ED74C55593 PUSH1 0xC0 SHL PUSH2 0x176B JUMP JUMPDEST DUP1 PUSH1 0x4 PUSH1 0x0 DUP3 DUP3 SLOAD PUSH2 0x12B5 SWAP2 SWAP1 PUSH2 0x1CD5 JUMP JUMPDEST SWAP3 POP POP DUP2 SWAP1 SSTORE POP PUSH2 0x12D0 PUSH8 0x1D3AB2E6B093E613 PUSH1 0xC0 SHL PUSH2 0x176B JUMP JUMPDEST DUP1 PUSH1 0x5 PUSH1 0x0 CALLER PUSH20 0xFFFFFFFFFFFFFFFFFFFFFFFFFFFFFFFFFFFFFFFF AND PUSH20 0xFFFFFFFFFFFFFFFFFFFFFFFFFFFFFFFFFFFFFFFF AND DUP2 MSTORE PUSH1 0x20 ADD SWAP1 DUP2 MSTORE PUSH1 0x20 ADD PUSH1 0x0 KECCAK256 PUSH1 0x0 DUP3 DUP3 SLOAD PUSH2 0x131F SWAP2 SWAP1 PUSH2 0x1CD5 JUMP JUMPDEST SWAP3 POP POP DUP2 SWAP1 SSTORE POP PUSH2 0x133A PUSH8 0x25D773CFD7E473F3 PUSH1 0xC0 SHL PUSH2 0x176B JUMP JUMPDEST PUSH2 0x134E PUSH8 0x6FF830C2A093D7BF PUSH1 0xC0 SHL PUSH2 0x176B JUMP JUMPDEST CALLER PUSH20 0xFFFFFFFFFFFFFFFFFFFFFFFFFFFFFFFFFFFFFFFF AND PUSH32 0x64B83944E79C3CE8D4C297411DE637C3E102D064677AAC0C163976EBDCD6F50E DUP5 DUP5 DUP5 PUSH1 0x40 MLOAD PUSH2 0x1398 SWAP4 SWAP3 SWAP2 SWAP1 PUSH2 0x1F8F JUMP JUMPDEST PUSH1 0x40 MLOAD DUP1 SWAP2 SUB SWAP1 LOG2 SWAP3 SWAP2 POP POP JUMP JUMPDEST PUSH1 0x5 PUSH1 0x20 MSTORE DUP1 PUSH1 0x0 MSTORE PUSH1 0x40 PUSH1 0x0 KECCAK256 PUSH1 0x0 SWAP2 POP SWAP1 POP SLOAD DUP2 JUMP JUMPDEST PUSH1 0x2 SLOAD DUP2 JUMP JUMPDEST PUSH1 0x0 PUSH2 0x13DA PUSH8 0x6F0C0B45B3EC44EB PUSH1 0xC0 SHL PUSH2 0x176B JUMP JUMPDEST PUSH2 0x13EE PUSH8 0xA12C51A2824C40EA PUSH1 0xC0 SHL PUSH2 0x176B JUMP JUMPDEST PUSH2 0x1402 PUSH8 0x4EB4C1A791D9113E PUSH1 0xC0 SHL PUSH2 0x176B JUMP JUMPDEST PUSH2 0x1416 PUSH8 0x236A226D5F41C35D PUSH1 0xC0 SHL PUSH2 0x176B JUMP JUMPDEST PUSH1 0x0 DUP3 GT PUSH2 0x1459 JUMPI PUSH1 0x40 MLOAD PUSH32 0x8C379A000000000000000000000000000000000000000000000000000000000 DUP2 MSTORE PUSH1 0x4 ADD PUSH2 0x1450 SWAP1 PUSH2 0x1BC1 JUMP JUMPDEST PUSH1 0x40 MLOAD DUP1 SWAP2 SUB SWAP1 REVERT JUMPDEST PUSH2 0x146D PUSH8 0x8DC3760E4F8CFC9C PUSH1 0xC0 SHL PUSH2 0x176B JUMP JUMPDEST PUSH2 0x1481 PUSH8 0xA139CD31990393C1 PUSH1 0xC0 SHL PUSH2 0x176B JUMP JUMPDEST PUSH2 0x1490 DUP3 PUSH1 0x3 SLOAD PUSH1 0x2 SLOAD PUSH2 0x66F JUMP JUMPDEST SWAP1 POP PUSH2 0x14A6 PUSH8 0x3828F594650CEDC9 PUSH1 0xC0 SHL PUSH2 0x176B JUMP JUMPDEST PUSH2 0x14BA PUSH8 0xF597D8B2EE58793A PUSH1 0xC0 SHL PUSH2 0x176B JUMP JUMPDEST PUSH1 0x1 PUSH1 0x0 SWAP1 SLOAD SWAP1 PUSH2 0x100 EXP SWAP1 DIV PUSH20 0xFFFFFFFFFFFFFFFFFFFFFFFFFFFFFFFFFFFFFFFF AND PUSH20 0xFFFFFFFFFFFFFFFFFFFFFFFFFFFFFFFFFFFFFFFF AND PUSH4 0x23B872DD CALLER ADDRESS DUP6 PUSH1 0x40 MLOAD DUP5 PUSH4 0xFFFFFFFF AND PUSH1 0xE0 SHL DUP2 MSTORE PUSH1 0x4 ADD PUSH2 0x1519 SWAP4 SWAP3 SWAP2 SWAP1 PUSH2 0x1BE1 JUMP JUMPDEST PUSH1 0x20 PUSH1 0x40 MLOAD DUP1 DUP4 SUB DUP2 PUSH1 0x0 DUP8 GAS CALL ISZERO DUP1 ISZERO PUSH2 0x1538 JUMPI RETURNDATASIZE PUSH1 0x0 DUP1 RETURNDATACOPY RETURNDATASIZE PUSH1 0x0 REVERT JUMPDEST POP POP POP POP PUSH1 0x40 MLOAD RETURNDATASIZE PUSH1 0x1F NOT PUSH1 0x1F DUP3 ADD AND DUP3 ADD DUP1 PUSH1 0x40 MSTORE POP DUP2 ADD SWAP1 PUSH2 0x155C SWAP2 SWAP1 PUSH2 0x1C50 JUMP JUMPDEST POP PUSH2 0x1571 PUSH8 0x28635E9A3740872B PUSH1 0xC0 SHL PUSH2 0x176B JUMP JUMPDEST PUSH2 0x1585 PUSH8 0x1877DAF322BF06AF PUSH1 0xC0 SHL PUSH2 0x176B JUMP JUMPDEST PUSH1 0x0 DUP1 SLOAD SWAP1 PUSH2 0x100 EXP SWAP1 DIV PUSH20 0xFFFFFFFFFFFFFFFFFFFFFFFFFFFFFFFFFFFFFFFF AND PUSH20 0xFFFFFFFFFFFFFFFFFFFFFFFFFFFFFFFFFFFFFFFF AND PUSH4 0xA9059CBB CALLER DUP4 PUSH1 0x40 MLOAD DUP4 PUSH4 0xFFFFFFFF AND PUSH1 0xE0 SHL DUP2 MSTORE PUSH1 0x4 ADD PUSH2 0x15E0 SWAP3 SWAP2 SWAP1 PUSH2 0x1C7D JUMP JUMPDEST PUSH1 0x20 PUSH1 0x40 MLOAD DUP1 DUP4 SUB DUP2 PUSH1 0x0 DUP8 GAS CALL ISZERO DUP1 ISZERO PUSH2 0x15FF JUMPI RETURNDATASIZE PUSH1 0x0 DUP1 RETURNDATACOPY RETURNDATASIZE PUSH1 0x0 REVERT JUMPDEST POP POP POP POP PUSH1 0x40 MLOAD RETURNDATASIZE PUSH1 0x1F NOT PUSH1 0x1F DUP3 ADD AND DUP3 ADD DUP1 PUSH1 0x40 MSTORE POP DUP2 ADD SWAP1 PUSH2 0x1623 SWAP2 SWAP1 PUSH2 0x1C50 JUMP JUMPDEST POP PUSH2 0x1638 PUSH8 0x69E2D8D49ACE2E9C PUSH1 0xC0 SHL PUSH2 0x176B JUMP JUMPDEST DUP2 PUSH1 0x3 PUSH1 0x0 DUP3 DUP3 SLOAD PUSH2 0x164A SWAP2 SWAP1 PUSH2 0x1CD5 JUMP JUMPDEST SWAP3 POP POP DUP2 SWAP1 SSTORE POP PUSH2 0x1665 PUSH8 0xFF076705CD3D3DCD PUSH1 0xC0 SHL PUSH2 0x176B JUMP JUMPDEST DUP1 PUSH1 0x2 PUSH1 0x0 DUP3 DUP3 SLOAD PUSH2 0x1677 SWAP2 SWAP1 PUSH2 0x1D09 JUMP JUMPDEST SWAP3 POP POP DUP2 SWAP1 SSTORE POP PUSH2 0x1692 PUSH8 0x8E73C290D9CCB8D3 PUSH1 0xC0 SHL PUSH2 0x176B JUMP JUMPDEST PUSH2 0x16A6 PUSH8 0x6FCF2D6708B12CCF PUSH1 0xC0 SHL PUSH2 0x176B JUMP JUMPDEST PUSH1 0x0 DUP1 SLOAD SWAP1 PUSH2 0x100 EXP SWAP1 DIV PUSH20 0xFFFFFFFFFFFFFFFFFFFFFFFFFFFFFFFFFFFFFFFF AND PUSH20 0xFFFFFFFFFFFFFFFFFFFFFFFFFFFFFFFFFFFFFFFF AND PUSH1 0x1 PUSH1 0x0 SWAP1 SLOAD SWAP1 PUSH2 0x100 EXP SWAP1 DIV PUSH20 0xFFFFFFFFFFFFFFFFFFFFFFFFFFFFFFFFFFFFFFFF AND PUSH20 0xFFFFFFFFFFFFFFFFFFFFFFFFFFFFFFFFFFFFFFFF AND CALLER PUSH20 0xFFFFFFFFFFFFFFFFFFFFFFFFFFFFFFFFFFFFFFFF AND PUSH32 0xCD3829A3813DC3CDD188FD3D01DCF3268C16BE2FDD2DD21D0665418816E46062 DUP6 DUP6 PUSH1 0x40 MLOAD PUSH2 0x175E SWAP3 SWAP2 SWAP1 PUSH2 0x1A46 JUMP JUMPDEST PUSH1 0x40 MLOAD DUP1 SWAP2 SUB SWAP1 LOG4 SWAP2 SWAP1 POP JUMP JUMPDEST POP JUMP JUMPDEST PUSH1 0x0 DUP1 DUP3 SUB PUSH2 0x1780 JUMPI PUSH1 0x0 SWAP1 POP PUSH2 0x1862 JUMP JUMPDEST PUSH1 0x0 PUSH1 0x1 PUSH2 0x178D DUP5 PUSH2 0x1867 JUMP JUMPDEST SWAP1 SHR PUSH1 0x1 SWAP1 SHL SWAP1 POP PUSH1 0x1 DUP2 DUP5 DUP2 PUSH2 0x17A7 JUMPI PUSH2 0x17A6 PUSH2 0x1E57 JUMP JUMPDEST JUMPDEST DIV DUP3 ADD SWAP1 SHR SWAP1 POP PUSH1 0x1 DUP2 DUP5 DUP2 PUSH2 0x17C0 JUMPI PUSH2 0x17BF PUSH2 0x1E57 JUMP JUMPDEST JUMPDEST DIV DUP3 ADD SWAP1 SHR SWAP1 POP PUSH1 0x1 DUP2 DUP5 DUP2 PUSH2 0x17D9 JUMPI PUSH2 0x17D8 PUSH2 0x1E57 JUMP JUMPDEST JUMPDEST DIV DUP3 ADD SWAP1 SHR SWAP1 POP PUSH1 0x1 DUP2 DUP5 DUP2 PUSH2 0x17F2 JUMPI PUSH2 0x17F1 PUSH2 0x1E57 JUMP JUMPDEST JUMPDEST DIV DUP3 ADD SWAP1 SHR SWAP1 POP PUSH1 0x1 DUP2 DUP5 DUP2 PUSH2 0x180B JUMPI PUSH2 0x180A PUSH2 0x1E57 JUMP JUMPDEST JUMPDEST DIV DUP3 ADD SWAP1 SHR SWAP1 POP PUSH1 0x1 DUP2 DUP5 DUP2 PUSH2 0x1824 JUMPI PUSH2 0x1823 PUSH2 0x1E57 JUMP JUMPDEST JUMPDEST DIV DUP3 ADD SWAP1 SHR SWAP1 POP PUSH1 0x1 DUP2 DUP5 DUP2 PUSH2 0x183D JUMPI PUSH2 0x183C PUSH2 0x1E57 JUMP JUMPDEST JUMPDEST DIV DUP3 ADD SWAP1 SHR SWAP1 POP PUSH2 0x185E DUP2 DUP3 DUP6 DUP2 PUSH2 0x1858 JUMPI PUSH2 0x1857 PUSH2 0x1E57 JUMP JUMPDEST JUMPDEST DIV PUSH2 0x1948 JUMP JUMPDEST SWAP2 POP POP JUMPDEST SWAP2 SWAP1 POP JUMP JUMPDEST PUSH1 0x0 DUP1 PUSH1 0x0 SWAP1 POP PUSH1 0x0 PUSH1 0x80 DUP5 SWAP1 SHR GT ISZERO PUSH2 0x1889 JUMPI PUSH1 0x80 DUP4 SWAP1 SHR SWAP3 POP PUSH1 0x80 DUP2 ADD SWAP1 POP JUMPDEST PUSH1 0x0 PUSH1 0x40 DUP5 SWAP1 SHR GT ISZERO PUSH2 0x18A4 JUMPI PUSH1 0x40 DUP4 SWAP1 SHR SWAP3 POP PUSH1 0x40 DUP2 ADD SWAP1 POP JUMPDEST PUSH1 0x0 PUSH1 0x20 DUP5 SWAP1 SHR GT ISZERO PUSH2 0x18BF JUMPI PUSH1 0x20 DUP4 SWAP1 SHR SWAP3 POP PUSH1 0x20 DUP2 ADD SWAP1 POP JUMPDEST PUSH1 0x0 PUSH1 0x10 DUP5 SWAP1 SHR GT ISZERO PUSH2 0x18DA JUMPI PUSH1 0x10 DUP4 SWAP1 SHR SWAP3 POP PUSH1 0x10 DUP2 ADD SWAP1 POP JUMPDEST PUSH1 0x0 PUSH1 0x8 DUP5 SWAP1 SHR GT ISZERO PUSH2 0x18F5 JUMPI PUSH1 0x8 DUP4 SWAP1 SHR SWAP3 POP PUSH1 0x8 DUP2 ADD SWAP1 POP JUMPDEST PUSH1 0x0 PUSH1 0x4 DUP5 SWAP1 SHR GT ISZERO PUSH2 0x1910 JUMPI PUSH1 0x4 DUP4 SWAP1 SHR SWAP3 POP PUSH1 0x4 DUP2 ADD SWAP1 POP JUMPDEST PUSH1 0x0 PUSH1 0x2 DUP5 SWAP1 SHR GT ISZERO PUSH2 0x192B JUMPI PUSH1 0x2 DUP4 SWAP1 SHR SWAP3 POP PUSH1 0x2 DUP2 ADD SWAP1 POP JUMPDEST PUSH1 0x0 PUSH1 0x1 DUP5 SWAP1 SHR GT ISZERO PUSH2 0x193F JUMPI PUSH1 0x1 DUP2 ADD SWAP1 POP JUMPDEST DUP1 SWAP2 POP POP SWAP2 SWAP1 POP JUMP JUMPDEST PUSH1 0x0 DUP2 DUP4 LT PUSH2 0x1957 JUMPI DUP2 PUSH2 0x1959 JUMP JUMPDEST DUP3 JUMPDEST SWAP1 POP SWAP3 SWAP2 POP POP JUMP JUMPDEST PUSH1 0x0 DUP1 REVERT JUMPDEST PUSH1 0x0 DUP2 SWAP1 POP SWAP2 SWAP1 POP JUMP JUMPDEST PUSH2 0x1979 DUP2 PUSH2 0x1966 JUMP JUMPDEST DUP2 EQ PUSH2 0x1984 JUMPI PUSH1 0x0 DUP1 REVERT JUMPDEST POP JUMP JUMPDEST PUSH1 0x0 DUP2 CALLDATALOAD SWAP1 POP PUSH2 0x1996 DUP2 PUSH2 0x1970 JUMP JUMPDEST SWAP3 SWAP2 POP POP JUMP JUMPDEST PUSH1 0x0 PUSH1 0x20 DUP3 DUP5 SUB SLT ISZERO PUSH2 0x19B2 JUMPI PUSH2 0x19B1 PUSH2 0x1961 JUMP JUMPDEST JUMPDEST PUSH1 0x0 PUSH2 0x19C0 DUP5 DUP3 DUP6 ADD PUSH2 0x1987 JUMP JUMPDEST SWAP2 POP POP SWAP3 SWAP2 POP POP JUMP JUMPDEST PUSH2 0x19D2 DUP2 PUSH2 0x1966 JUMP JUMPDEST DUP3 MSTORE POP POP JUMP JUMPDEST PUSH1 0x0 PUSH1 0x20 DUP3 ADD SWAP1 POP PUSH2 0x19ED PUSH1 0x0 DUP4 ADD DUP5 PUSH2 0x19C9 JUMP JUMPDEST SWAP3 SWAP2 POP POP JUMP JUMPDEST PUSH1 0x0 DUP1 PUSH1 0x0 PUSH1 0x60 DUP5 DUP7 SUB SLT ISZERO PUSH2 0x1A0C JUMPI PUSH2 0x1A0B PUSH2 0x1961 JUMP JUMPDEST JUMPDEST PUSH1 0x0 PUSH2 0x1A1A DUP7 DUP3 DUP8 ADD PUSH2 0x1987 JUMP JUMPDEST SWAP4 POP POP PUSH1 0x20 PUSH2 0x1A2B DUP7 DUP3 DUP8 ADD PUSH2 0x1987 JUMP JUMPDEST SWAP3 POP POP PUSH1 0x40 PUSH2 0x1A3C DUP7 DUP3 DUP8 ADD PUSH2 0x1987 JUMP JUMPDEST SWAP2 POP POP SWAP3 POP SWAP3 POP SWAP3 JUMP JUMPDEST PUSH1 0x0 PUSH1 0x40 DUP3 ADD SWAP1 POP PUSH2 0x1A5B PUSH1 0x0 DUP4 ADD DUP6 PUSH2 0x19C9 JUMP JUMPDEST PUSH2 0x1A68 PUSH1 0x20 DUP4 ADD DUP5 PUSH2 0x19C9 JUMP JUMPDEST SWAP4 SWAP3 POP POP POP JUMP JUMPDEST PUSH1 0x0 PUSH20 0xFFFFFFFFFFFFFFFFFFFFFFFFFFFFFFFFFFFFFFFF DUP3 AND SWAP1 POP SWAP2 SWAP1 POP JUMP JUMPDEST PUSH1 0x0 PUSH2 0x1A9A DUP3 PUSH2 0x1A6F JUMP JUMPDEST SWAP1 POP SWAP2 SWAP1 POP JUMP JUMPDEST PUSH2 0x1AAA DUP2 PUSH2 0x1A8F JUMP JUMPDEST DUP3 MSTORE POP POP JUMP JUMPDEST PUSH1 0x0 PUSH1 0x20 DUP3 ADD SWAP1 POP PUSH2 0x1AC5 PUSH1 0x0 DUP4 ADD DUP5 PUSH2 0x1AA1 JUMP JUMPDEST SWAP3 SWAP2 POP POP JUMP JUMPDEST PUSH1 0x0 DUP1 PUSH1 0x40 DUP4 DUP6 SUB SLT ISZERO PUSH2 0x1AE2 JUMPI PUSH2 0x1AE1 PUSH2 0x1961 JUMP JUMPDEST JUMPDEST PUSH1 0x0 PUSH2 0x1AF0 DUP6 DUP3 DUP7 ADD PUSH2 0x1987 JUMP JUMPDEST SWAP3 POP POP PUSH1 0x20 PUSH2 0x1B01 DUP6 DUP3 DUP7 ADD PUSH2 0x1987 JUMP JUMPDEST SWAP2 POP POP SWAP3 POP SWAP3 SWAP1 POP JUMP JUMPDEST PUSH2 0x1B14 DUP2 PUSH2 0x1A8F JUMP JUMPDEST DUP2 EQ PUSH2 0x1B1F JUMPI PUSH1 0x0 DUP1 REVERT JUMPDEST POP JUMP JUMPDEST PUSH1 0x0 DUP2 CALLDATALOAD SWAP1 POP PUSH2 0x1B31 DUP2 PUSH2 0x1B0B JUMP JUMPDEST SWAP3 SWAP2 POP POP JUMP JUMPDEST PUSH1 0x0 PUSH1 0x20 DUP3 DUP5 SUB SLT ISZERO PUSH2 0x1B4D JUMPI PUSH2 0x1B4C PUSH2 0x1961 JUMP JUMPDEST JUMPDEST PUSH1 0x0 PUSH2 0x1B5B DUP5 DUP3 DUP6 ADD PUSH2 0x1B22 JUMP JUMPDEST SWAP2 POP POP SWAP3 SWAP2 POP POP JUMP JUMPDEST PUSH1 0x0 DUP3 DUP3 MSTORE PUSH1 0x20 DUP3 ADD SWAP1 POP SWAP3 SWAP2 POP POP JUMP JUMPDEST PUSH32 0x416D6F756E74206D7573742062652067726561746572207468616E2030000000 PUSH1 0x0 DUP3 ADD MSTORE POP JUMP JUMPDEST PUSH1 0x0 PUSH2 0x1BAB PUSH1 0x1D DUP4 PUSH2 0x1B64 JUMP JUMPDEST SWAP2 POP PUSH2 0x1BB6 DUP3 PUSH2 0x1B75 JUMP JUMPDEST PUSH1 0x20 DUP3 ADD SWAP1 POP SWAP2 SWAP1 POP JUMP JUMPDEST PUSH1 0x0 PUSH1 0x20 DUP3 ADD SWAP1 POP DUP2 DUP2 SUB PUSH1 0x0 DUP4 ADD MSTORE PUSH2 0x1BDA DUP2 PUSH2 0x1B9E JUMP JUMPDEST SWAP1 POP SWAP2 SWAP1 POP JUMP JUMPDEST PUSH1 0x0 PUSH1 0x60 DUP3 ADD SWAP1 POP PUSH2 0x1BF6 PUSH1 0x0 DUP4 ADD DUP7 PUSH2 0x1AA1 JUMP JUMPDEST PUSH2 0x1C03 PUSH1 0x20 DUP4 ADD DUP6 PUSH2 0x1AA1 JUMP JUMPDEST PUSH2 0x1C10 PUSH1 0x40 DUP4 ADD DUP5 PUSH2 0x19C9 JUMP JUMPDEST SWAP5 SWAP4 POP POP POP POP JUMP JUMPDEST PUSH1 0x0 DUP2 ISZERO ISZERO SWAP1 POP SWAP2 SWAP1 POP JUMP JUMPDEST PUSH2 0x1C2D DUP2 PUSH2 0x1C18 JUMP JUMPDEST DUP2 EQ PUSH2 0x1C38 JUMPI PUSH1 0x0 DUP1 REVERT JUMPDEST POP JUMP JUMPDEST PUSH1 0x0 DUP2 MLOAD SWAP1 POP PUSH2 0x1C4A DUP2 PUSH2 0x1C24 JUMP JUMPDEST SWAP3 SWAP2 POP POP JUMP JUMPDEST PUSH1 0x0 PUSH1 0x20 DUP3 DUP5 SUB SLT ISZERO PUSH2 0x1C66 JUMPI PUSH2 0x1C65 PUSH2 0x1961 JUMP JUMPDEST JUMPDEST PUSH1 0x0 PUSH2 0x1C74 DUP5 DUP3 DUP6 ADD PUSH2 0x1C3B JUMP JUMPDEST SWAP2 POP POP SWAP3 SWAP2 POP POP JUMP JUMPDEST PUSH1 0x0 PUSH1 0x40 DUP3 ADD SWAP1 POP PUSH2 0x1C92 PUSH1 0x0 DUP4 ADD DUP6 PUSH2 0x1AA1 JUMP JUMPDEST PUSH2 0x1C9F PUSH1 0x20 DUP4 ADD DUP5 PUSH2 0x19C9 JUMP JUMPDEST SWAP4 SWAP3 POP POP POP JUMP JUMPDEST PUSH32 0x4E487B7100000000000000000000000000000000000000000000000000000000 PUSH1 0x0 MSTORE PUSH1 0x11 PUSH1 0x4 MSTORE PUSH1 0x24 PUSH1 0x0 REVERT JUMPDEST PUSH1 0x0 PUSH2 0x1CE0 DUP3 PUSH2 0x1966 JUMP JUMPDEST SWAP2 POP PUSH2 0x1CEB DUP4 PUSH2 0x1966 JUMP JUMPDEST SWAP3 POP DUP3 DUP3 ADD SWAP1 POP DUP1 DUP3 GT ISZERO PUSH2 0x1D03 JUMPI PUSH2 0x1D02 PUSH2 0x1CA6 JUMP JUMPDEST JUMPDEST SWAP3 SWAP2 POP POP JUMP JUMPDEST PUSH1 0x0 PUSH2 0x1D14 DUP3 PUSH2 0x1966 JUMP JUMPDEST SWAP2 POP PUSH2 0x1D1F DUP4 PUSH2 0x1966 JUMP JUMPDEST SWAP3 POP DUP3 DUP3 SUB SWAP1 POP DUP2 DUP2 GT ISZERO PUSH2 0x1D37 JUMPI PUSH2 0x1D36 PUSH2 0x1CA6 JUMP JUMPDEST JUMPDEST SWAP3 SWAP2 POP POP JUMP JUMPDEST PUSH32 0x496E73756666696369656E7420696E70757420616D6F756E7400000000000000 PUSH1 0x0 DUP3 ADD MSTORE POP JUMP JUMPDEST PUSH1 0x0 PUSH2 0x1D73 PUSH1 0x19 DUP4 PUSH2 0x1B64 JUMP JUMPDEST SWAP2 POP PUSH2 0x1D7E DUP3 PUSH2 0x1D3D JUMP JUMPDEST PUSH1 0x20 DUP3 ADD SWAP1 POP SWAP2 SWAP1 POP JUMP JUMPDEST PUSH1 0x0 PUSH1 0x20 DUP3 ADD SWAP1 POP DUP2 DUP2 SUB PUSH1 0x0 DUP4 ADD MSTORE PUSH2 0x1DA2 DUP2 PUSH2 0x1D66 JUMP JUMPDEST SWAP1 POP SWAP2 SWAP1 POP JUMP JUMPDEST PUSH32 0x496E73756666696369656E74206C697175696469747900000000000000000000 PUSH1 0x0 DUP3 ADD MSTORE POP JUMP JUMPDEST PUSH1 0x0 PUSH2 0x1DDF PUSH1 0x16 DUP4 PUSH2 0x1B64 JUMP JUMPDEST SWAP2 POP PUSH2 0x1DEA DUP3 PUSH2 0x1DA9 JUMP JUMPDEST PUSH1 0x20 DUP3 ADD SWAP1 POP SWAP2 SWAP1 POP JUMP JUMPDEST PUSH1 0x0 PUSH1 0x20 DUP3 ADD SWAP1 POP DUP2 DUP2 SUB PUSH1 0x0 DUP4 ADD MSTORE PUSH2 0x1E0E DUP2 PUSH2 0x1DD2 JUMP JUMPDEST SWAP1 POP SWAP2 SWAP1 POP JUMP JUMPDEST PUSH1 0x0 PUSH2 0x1E20 DUP3 PUSH2 0x1966 JUMP JUMPDEST SWAP2 POP PUSH2 0x1E2B DUP4 PUSH2 0x1966 JUMP JUMPDEST SWAP3 POP DUP3 DUP3 MUL PUSH2 0x1E39 DUP2 PUSH2 0x1966 JUMP JUMPDEST SWAP2 POP DUP3 DUP3 DIV DUP5 EQ DUP4 ISZERO OR PUSH2 0x1E50 JUMPI PUSH2 0x1E4F PUSH2 0x1CA6 JUMP JUMPDEST JUMPDEST POP SWAP3 SWAP2 POP POP JUMP JUMPDEST PUSH32 0x4E487B7100000000000000000000000000000000000000000000000000000000 PUSH1 0x0 MSTORE PUSH1 0x12 PUSH1 0x4 MSTORE PUSH1 0x24 PUSH1 0x0 REVERT JUMPDEST PUSH1 0x0 PUSH2 0x1E91 DUP3 PUSH2 0x1966 JUMP JUMPDEST SWAP2 POP PUSH2 0x1E9C DUP4 PUSH2 0x1966 JUMP JUMPDEST SWAP3 POP DUP3 PUSH2 0x1EAC JUMPI PUSH2 0x1EAB PUSH2 0x1E57 JUMP JUMPDEST JUMPDEST DUP3 DUP3 DIV SWAP1 POP SWAP3 SWAP2 POP POP JUMP JUMPDEST PUSH32 0x5265736572766541206973203000000000000000000000000000000000000000 PUSH1 0x0 DUP3 ADD MSTORE POP JUMP JUMPDEST PUSH1 0x0 PUSH2 0x1EED PUSH1 0xD DUP4 PUSH2 0x1B64 JUMP JUMPDEST SWAP2 POP PUSH2 0x1EF8 DUP3 PUSH2 0x1EB7 JUMP JUMPDEST PUSH1 0x20 DUP3 ADD SWAP1 POP SWAP2 SWAP1 POP JUMP JUMPDEST PUSH1 0x0 PUSH1 0x20 DUP3 ADD SWAP1 POP DUP2 DUP2 SUB PUSH1 0x0 DUP4 ADD MSTORE PUSH2 0x1F1C DUP2 PUSH2 0x1EE0 JUMP JUMPDEST SWAP1 POP SWAP2 SWAP1 POP JUMP JUMPDEST PUSH32 0x496E73756666696369656E74204C5020746F6B656E7300000000000000000000 PUSH1 0x0 DUP3 ADD MSTORE POP JUMP JUMPDEST PUSH1 0x0 PUSH2 0x1F59 PUSH1 0x16 DUP4 PUSH2 0x1B64 JUMP JUMPDEST SWAP2 POP PUSH2 0x1F64 DUP3 PUSH2 0x1F23 JUMP JUMPDEST PUSH1 0x20 DUP3 ADD SWAP1 POP SWAP2 SWAP1 POP JUMP JUMPDEST PUSH1 0x0 PUSH1 0x20 DUP3 ADD SWAP1 POP DUP2 DUP2 SUB PUSH1 0x0 DUP4 ADD MSTORE PUSH2 0x1F88 DUP2 PUSH2 0x1F4C JUMP JUMPDEST SWAP1 POP SWAP2 SWAP1 POP JUMP JUMPDEST PUSH1 0x0 PUSH1 0x60 DUP3 ADD SWAP1 POP PUSH2 0x1FA4 PUSH1 0x0 DUP4 ADD DUP7 PUSH2 0x19C9 JUMP JUMPDEST PUSH2 0x1FB1 PUSH1 0x20 DUP4 ADD DUP6 PUSH2 0x19C9 JUMP JUMPDEST PUSH2 0x1FBE PUSH1 0x40 DUP4 ADD DUP5 PUSH2 0x19C9 JUMP JUMPDEST SWAP5 SWAP4 POP POP POP POP JUMP JUMPDEST PUSH32 0x416D6F756E7473206D7573742062652067726561746572207468616E20300000 PUSH1 0x0 DUP3 ADD MSTORE POP JUMP JUMPDEST PUSH1 0x0 PUSH2 0x1FFC PUSH1 0x1E DUP4 PUSH2 0x1B64 JUMP JUMPDEST SWAP2 POP PUSH2 0x2007 DUP3 PUSH2 0x1FC6 JUMP JUMPDEST PUSH1 0x20 DUP3 ADD SWAP1 POP SWAP2 SWAP1 POP JUMP JUMPDEST PUSH1 0x0 PUSH1 0x20 DUP3 ADD SWAP1 POP DUP2 DUP2 SUB PUSH1 0x0 DUP4 ADD MSTORE PUSH2 0x202B DUP2 PUSH2 0x1FEF JUMP JUMPDEST SWAP1 POP SWAP2 SWAP1 POP JUMP JUMPDEST PUSH32 0x496E636F7272656374206C697175696469747920726174696F00000000000000 PUSH1 0x0 DUP3 ADD MSTORE POP JUMP JUMPDEST PUSH1 0x0 PUSH2 0x2068 PUSH1 0x19 DUP4 PUSH2 0x1B64 JUMP JUMPDEST SWAP2 POP PUSH2 0x2073 DUP3 PUSH2 0x2032 JUMP JUMPDEST PUSH1 0x20 DUP3 ADD SWAP1 POP SWAP2 SWAP1 POP JUMP JUMPDEST PUSH1 0x0 PUSH1 0x20 DUP3 ADD SWAP1 POP DUP2 DUP2 SUB PUSH1 0x0 DUP4 ADD MSTORE PUSH2 0x2097 DUP2 PUSH2 0x205B JUMP JUMPDEST SWAP1 POP SWAP2 SWAP1 POP JUMP INVALID LOG2 PUSH5 0x6970667358 0x22 SLT KECCAK256 0xD5 0xB4 SIGNEXTEND 0xC6 0xC2 PUSH5 0x7672CDF21E 0x5E PUSH9 0xC268E8B25501EDAB76 XOR 0xE1 PUSH7 0x5CDCBFE291EF8A PUSH5 0x736F6C6343 STOP ADDMOD SGT STOP CALLER "},"methodIdentifiers":{"addLiquidity(uint256,uint256)":"9cd441da","getAmountOut(uint256,uint256,uint256)":"054d50d4","getPrice()":"98d5fdca","getReserves()":"0902f1ac","liquidity(address)":"b8c876b1","removeLiquidity(uint256)":"9c8f9f23","reserveA()":"dc5fa6c5","reserveB()":"19e36f3b","swapAForB(uint256)":"03102091","swapBForA(uint256)":"e619a498","tokenA()":"0fc63d10","tokenB()":"5f64b55b","totalLiquidity()":"15770f92"}}}}}