{
  "_format": "hh-sol-artifact-1",
  "contractName": "DEX",
  "sourceName": "contracts/DEX.sol",
  "abi": [
    {
      "inputs": [
        {
          "internalType": "address",
          "name": "_tokenA",
          "type": "address"
        },
        {
          "internalType": "address",
          "name": "_tokenB",
          "type": "address"
        }
      ],
      "stateMutability": "nonpayable",
      "type": "constructor"
    },
    {
      "anonymous": false,
      "inputs": [
        {
          "indexed": true,
          "internalType": "address",
          "name": "provider",
          "type": "address"
        },
        {
          "indexed": false,
          "internalType": "uint256",
          "name": "amountA",
          "type": "uint256"
        },
        {
          "indexed": false,
          "internalType": "uint256",
          "name": "amountB",
          "type": "uint256"
        },
        {
          "indexed": false,
          "internalType": "uint256",
          "name": "liquidityMinted",
          "type": "uint256"
        }
      ],
      "name": "LiquidityAdded",
      "type": "event"
    },
    {
      "anonymous": false,
      "inputs": [
        {
          "indexed": true,
          "internalType": "address",
          "name": "provider",
          "type": "address"
        },
        {
          "indexed": false,
          "internalType": "uint256",
          "name": "amountA",
          "type": "uint256"
        },
        {
          "indexed": false,
          "internalType": "uint256",
          "name": "amountB",
          "type": "uint256"
        },
        {
          "indexed": false,
          "internalType": "uint256",
          "name": "liquidityBurned",
          "type": "uint256"
        }
      ],
      "name": "LiquidityRemoved",
      "type": "event"
    },
    {
      "anonymous": false,
      "inputs": [
        {
          "indexed": true,
          "internalType": "address",
          "name": "trader",
          "type": "address"
        },
        {
          "indexed": true,
          "internalType": "address",
          "name": "tokenIn",
          "type": "address"
        },
        {
          "indexed": true,
          "internalType": "address",
          "name": "tokenOut",
          "type": "address"
        },
        {
          "indexed": false,
          "internalType": "uint256",
          "name": "amountIn",
          "type": "uint256"
        },
        {
          "indexed": false,
          "internalType": "uint256",
          "name": "amountOut",
          "type": "uint256"
        }
      ],
      "name": "Swap",
      "type": "event"
    },
    {
      "inputs": [
        {
          "internalType": "uint256",
          "name": "amountA",
          "type": "uint256"
        },
        {
          "internalType": "uint256",
          "name": "amountB",
          "type": "uint256"
        }
      ],
      "name": "addLiquidity",
      "outputs": [
        {
          "internalType": "uint256",
          "name": "liquidityMinted",
          "type": "uint256"
        }
      ],
      "stateMutability": "nonpayable",
      "type": "function"
    },
    {
      "inputs": [
        {
          "internalType": "uint256",
          "name": "amountIn",
          "type": "uint256"
        },
        {
          "internalType": "uint256",
          "name": "reserveIn",
          "type": "uint256"
        },
        {
          "internalType": "uint256",
          "name": "reserveOut",
          "type": "uint256"
        }
      ],
      "name": "getAmountOut",
      "outputs": [
        {
          "internalType": "uint256",
          "name": "amountOut",
          "type": "uint256"
        }
      ],
      "stateMutability": "pure",
      "type": "function"
    },
    {
      "inputs": [],
      "name": "getPrice",
      "outputs": [
        {
          "internalType": "uint256",
          "name": "price",
          "type": "uint256"
        }
      ],
      "stateMutability": "view",
      "type": "function"
    },
    {
      "inputs": [],
      "name": "getReserves",
      "outputs": [
        {
          "internalType": "uint256",
          "name": "_reserveA",
          "type": "uint256"
        },
        {
          "internalType": "uint256",
          "name": "_reserveB",
          "type": "uint256"
        }
      ],
      "stateMutability": "view",
      "type": "function"
    },
    {
      "inputs": [
        {
          "internalType": "address",
          "name": "",
          "type": "address"
        }
      ],
      "name": "liquidity",
      "outputs": [
        {
          "internalType": "uint256",
          "name": "",
          "type": "uint256"
        }
      ],
      "stateMutability": "view",
      "type": "function"
    },
    {
      "inputs": [
        {
          "internalType": "uint256",
          "name": "liquidityAmount",
          "type": "uint256"
        }
      ],
      "name": "removeLiquidity",
      "outputs": [
        {
          "internalType": "uint256",
          "name": "amountA",
          "type": "uint256"
        },
        {
          "internalType": "uint256",
          "name": "amountB",
          "type": "uint256"
        }
      ],
      "stateMutability": "nonpayable",
      "type": "function"
    },
    {
      "inputs": [],
      "name": "reserveA",
      "outputs": [
        {
          "internalType": "uint256",
          "name": "",
          "type": "uint256"
        }
      ],
      "stateMutability": "view",
      "type": "function"
    },
    {
      "inputs": [],
      "name": "reserveB",
      "outputs": [
        {
          "internalType": "uint256",
          "name": "",
          "type": "uint256"
        }
      ],
      "stateMutability": "view",
      "type": "function"
    },
    {
      "inputs": [
        {
          "internalType": "uint256",
          "name": "amountAIn",
          "type": "uint256"
        }
      ],
      "name": "swapAForB",
      "outputs": [
        {
          "internalType": "uint256",
          "name": "amountBOut",
          "type": "uint256"
        }
      ],
      "stateMutability": "nonpayable",
      "type": "function"
    },
    {
      "inputs": [
        {
          "internalType": "uint256",
          "name": "amountBIn",
          "type": "uint256"
        }
      ],
      "name": "swapBForA",
      "outputs": [
        {
          "internalType": "uint256",
          "name": "amountAOut",
          "type": "uint256"
        }
      ],
      "stateMutability": "nonpayable",
      "type": "function"
    },
    {
      "inputs": [],
      "name": "tokenA",
      "outputs": [
        {
          "internalType": "address",
          "name": "",
          "type": "address"
        }
      ],
      "stateMutability": "view",
      "type": "function"
    },
    {
      "inputs": [],
      "name": "tokenB",
      "outputs": [
        {
          "internalType": "address",
          "name": "",
          "type": "address"
        }
      ],
      "stateMutability": "view",
      "type": "function"
    },
    {
      "inputs": [],
      "name": "totalLiquidity",
      "outputs": [
        {
          "internalType": "uint256",
          "name": "",
          "type": "uint256"
        }
      ],
      "stateMutability": "view",
      "type": "function"
    }
  ],
  "bytecode": "0x60806040523480156200001157600080fd5b50604051620022ac380380620022ac833981810160405281019062000037919062000181565b6200005367769dbbbc91f6658460c01b6200011460201b60201c565b6200006f67f61a9b8f67aa68d960c01b6200011460201b60201c565b816000806101000a81548173ffffffffffffffffffffffffffffffffffffffff021916908373ffffffffffffffffffffffffffffffffffffffff160217905550620000cb6793e6380b585b905360c01b6200011460201b60201c565b80600160006101000a81548173ffffffffffffffffffffffffffffffffffffffff021916908373ffffffffffffffffffffffffffffffffffffffff1602179055505050620001c8565b50565b600080fd5b600073ffffffffffffffffffffffffffffffffffffffff82169050919050565b600062000149826200011c565b9050919050565b6200015b816200013c565b81146200016757600080fd5b50565b6000815190506200017b8162000150565b92915050565b600080604083850312156200019b576200019a62000117565b5b6000620001ab858286016200016a565b9250506020620001be858286016200016a565b9150509250929050565b6120d480620001d86000396000f3fe608060405234801561001057600080fd5b50600436106100cf5760003560e01c80635f64b55b1161008c5780639cd441da116100665780639cd441da1461021a578063b8c876b11461024a578063dc5fa6c51461027a578063e619a49814610298576100cf565b80635f64b55b146101ad57806398d5fdca146101cb5780639c8f9f23146101e9576100cf565b806303102091146100d4578063054d50d4146101045780630902f1ac146101345780630fc63d101461015357806315770f921461017157806319e36f3b1461018f575b600080fd5b6100ee60048036038101906100e9919061199c565b6102c8565b6040516100fb91906119d8565b60405180910390f35b61011e600480360381019061011991906119f3565b61066f565b60405161012b91906119d8565b60405180910390f35b61013c6108ae565b60405161014a929190611a46565b60405180910390f35b61015b6108fb565b6040516101689190611ab0565b60405180910390f35b61017961091f565b60405161018691906119d8565b60405180910390f35b610197610925565b6040516101a491906119d8565b60405180910390f35b6101b561092b565b6040516101c29190611ab0565b60405180910390f35b6101d3610951565b6040516101e091906119d8565b60405180910390f35b61020360048036038101906101fe919061199c565b610a39565b604051610211929190611a46565b60405180910390f35b610234600480360381019061022f9190611acb565b610e84565b60405161024191906119d8565b60405180910390f35b610264600480360381019061025f9190611b37565b6113a6565b60405161027191906119d8565b60405180910390f35b6102826113be565b60405161028f91906119d8565b60405180910390f35b6102b260048036038101906102ad919061199c565b6113c4565b6040516102bf91906119d8565b60405180910390f35b60006102de6785d64c18ff8d8a7d60c01b61176b565b6102f267f52c0d2f32cd995460c01b61176b565b610306675cfeecbb2d93f88060c01b61176b565b61031a671d7092769337191360c01b61176b565b6000821161035d576040517f08c379a000000000000000000000000000000000000000000000000000000000815260040161035490611bc1565b60405180910390fd5b610371677bb56b8c18f4a94f60c01b61176b565b6103856759eb3d07084b42e460c01b61176b565b6103948260025460035461066f565b90506103aa670daa4b39d8abd8e460c01b61176b565b6103be67f70e971661bcd01760c01b61176b565b60008054906101000a900473ffffffffffffffffffffffffffffffffffffffff1673ffffffffffffffffffffffffffffffffffffffff166323b872dd3330856040518463ffffffff1660e01b815260040161041b93929190611be1565b6020604051808303816000875af115801561043a573d6000803e3d6000fd5b505050506040513d601f19601f8201168201806040525081019061045e9190611c50565b506104736795b0f3e8214f8aa760c01b61176b565b61048767dc4365340c4e1faa60c01b61176b565b600160009054906101000a900473ffffffffffffffffffffffffffffffffffffffff1673ffffffffffffffffffffffffffffffffffffffff1663a9059cbb33836040518363ffffffff1660e01b81526004016104e4929190611c7d565b6020604051808303816000875af1158015610503573d6000803e3d6000fd5b505050506040513d601f19601f820116820180604052508101906105279190611c50565b5061053c67259c1911c828a29e60c01b61176b565b816002600082825461054e9190611cd5565b9250508190555061056967f1d93f327b20dffb60c01b61176b565b806003600082825461057b9190611d09565b9250508190555061059667cfe82e7358cdbd2460c01b61176b565b6105aa67e9dbbc2ca62da9e060c01b61176b565b600160009054906101000a900473ffffffffffffffffffffffffffffffffffffffff1673ffffffffffffffffffffffffffffffffffffffff1660008054906101000a900473ffffffffffffffffffffffffffffffffffffffff1673ffffffffffffffffffffffffffffffffffffffff163373ffffffffffffffffffffffffffffffffffffffff167fcd3829a3813dc3cdd188fd3d01dcf3268c16be2fdd2dd21d0665418816e460628585604051610662929190611a46565b60405180910390a4919050565b600061068567067a425dcfd0470960c01b61176b565b610699677946e6881e76482c60c01b61176b565b6106ad6742933e917bf0abca60c01b61176b565b6106c167f83b47a33e6c9f4060c01b61176b565b60008411610704576040517f08c379a00000000000000000000000000000000000000000000000000000000081526004016106fb90611d89565b60405180910390fd5b610718675a30b18d7fc7bb7b60c01b61176b565b61072c67fcb452cfc1a6cff860c01b61176b565b61074067d06d729a9a04fde460c01b61176b565b61075467db6acecbc5e5084560c01b61176b565b6000831180156107645750600082115b6107a3576040517f08c379a000000000000000000000000000000000000000000000000000000000815260040161079a90611df5565b60405180910390fd5b6107b767279750c859c2939960c01b61176b565b6107cb67ae494250a453df1d60c01b61176b565b6107df671bee71ff6463313e60c01b61176b565b60006103e5856107ef9190611e15565b905061080567a036195ab60a376a60c01b61176b565b610819677d1453d7a7e9e80660c01b61176b565b600083826108279190611e15565b905061083d67f7697f764b4db78c60c01b61176b565b61085167e482a1836b3cadc060c01b61176b565b6000826103e8876108629190611e15565b61086c9190611cd5565b905061088267af9bdef3e19623a660c01b61176b565b61089667baab9738106ec27d60c01b61176b565b80826108a29190611e86565b93505050509392505050565b6000806108c567a2d68bed5c6b232a60c01b61176b565b6108d9678cc444f0d34c3ec560c01b61176b565b6108ed67767a70917dc8ac0860c01b61176b565b600254600354915091509091565b60008054906101000a900473ffffffffffffffffffffffffffffffffffffffff1681565b60045481565b60035481565b600160009054906101000a900473ffffffffffffffffffffffffffffffffffffffff1681565b6000610967670601cdc9397c861860c01b61176b565b61097b67df167addc148b0c360c01b61176b565b61098f67f6d74be2aadc90b560c01b61176b565b6109a3673778813fd88e506760c01b61176b565b6000600254116109e8576040517f08c379a00000000000000000000000000000000000000000000000000000000081526004016109df90611f03565b60405180910390fd5b6109fc670c7a9ab3e5fb3f6960c01b61176b565b610a106768ba67865654c36560c01b61176b565b610a24675eb4d59ac1a9312760c01b61176b565b600254600354610a349190611e86565b905090565b600080610a5067508335bfaa5b98ec60c01b61176b565b610a646754f0114f8356aabc60c01b61176b565b610a786725f1864ac96ddbe060c01b61176b565b610a8c67211b47ae2fe4f6f560c01b61176b565b82600560003373ffffffffffffffffffffffffffffffffffffffff1673ffffffffffffffffffffffffffffffffffffffff168152602001908152602001600020541015610b0e576040517f08c379a0000000000000000000000000000000000000000000000000000000008152600401610b0590611f6f565b60405180910390fd5b610b2267701eb7eb00bc80b260c01b61176b565b610b3667fd7406c9ec7173fc60c01b61176b565b60045460025484610b479190611e15565b610b519190611e86565b9150610b67672f0eb5b3cc4aa65360c01b61176b565b60045460035484610b789190611e15565b610b829190611e86565b9050610b98671e41e6657e29967960c01b61176b565b82600560003373ffffffffffffffffffffffffffffffffffffffff1673ffffffffffffffffffffffffffffffffffffffff1681526020019081526020016000206000828254610be79190611d09565b92505081905550610c0267bc98eeb17617674460c01b61176b565b8260046000828254610c149190611d09565b92505081905550610c2f677eb17d4ed454eb7360c01b61176b565b8160026000828254610c419190611d09565b92505081905550610c5c674c67743ad8e9a26860c01b61176b565b8060036000828254610c6e9190611d09565b92505081905550610c89677d3e88ecf8f527d560c01b61176b565b610c9d67463eb9a174c765f760c01b61176b565b60008054906101000a900473ffffffffffffffffffffffffffffffffffffffff1673ffffffffffffffffffffffffffffffffffffffff1663a9059cbb33846040518363ffffffff1660e01b8152600401610cf8929190611c7d565b6020604051808303816000875af1158015610d17573d6000803e3d6000fd5b505050506040513d601f19601f82011682018060405250810190610d3b9190611c50565b50610d5067eb37fb900751964a60c01b61176b565b610d64671c665e0b0653d4d760c01b61176b565b600160009054906101000a900473ffffffffffffffffffffffffffffffffffffffff1673ffffffffffffffffffffffffffffffffffffffff1663a9059cbb33836040518363ffffffff1660e01b8152600401610dc1929190611c7d565b6020604051808303816000875af1158015610de0573d6000803e3d6000fd5b505050506040513d601f19601f82011682018060405250810190610e049190611c50565b50610e19675533cf8f28366d2860c01b61176b565b610e2d6777d70dddca2abaf860c01b61176b565b3373ffffffffffffffffffffffffffffffffffffffff167f1dc8bb69df2b8e91fbdcbfcf93d951b3f0000f085a95fe3f7946d6161439245d838386604051610e7793929190611f8f565b60405180910390a2915091565b6000610e9a67639ec9c0ffb0db9360c01b61176b565b610eae672a5b8c0257d8fd6060c01b61176b565b610ec267164e3596d50a7e5a60c01b61176b565b610ed6674f13450b5998b59160c01b61176b565b600083118015610ee65750600082115b610f25576040517f08c379a0000000000000000000000000000000000000000000000000000000008152600401610f1c90612012565b60405180910390fd5b610f3967d511d1c3bd28273760c01b61176b565b610f4d6739f76060a361ad5f60c01b61176b565b610f61672bbefb268bcd446460c01b61176b565b600060045403610fae57610f7f679343b798ed6f3cf360c01b61176b565b610f93674aca28c27bc289ab60c01b61176b565b610fa78284610fa29190611e15565b61176e565b90506110a1565b610fc267059e0ec891eeeaf160c01b61176b565b610fd667529ff306fa8feff460c01b61176b565b610fea67a675287ce7994e7260c01b61176b565b610ffe674aef41415d3c1e5260c01b61176b565b6002546003548461100f9190611e15565b6110199190611e86565b82101561105b576040517f08c379a00000000000000000000000000000000000000000000000000000000081526004016110529061207e565b60405180910390fd5b61106f672b9e188b26cd526160c01b61176b565b6110836725a0037ea835ee7160c01b61176b565b600254600454846110949190611e15565b61109e9190611e86565b90505b6110b567342194d934579a2460c01b61176b565b6110c967fa2b371ef79fc3b460c01b61176b565b60008054906101000a900473ffffffffffffffffffffffffffffffffffffffff1673ffffffffffffffffffffffffffffffffffffffff166323b872dd3330866040518463ffffffff1660e01b815260040161112693929190611be1565b6020604051808303816000875af1158015611145573d6000803e3d6000fd5b505050506040513d601f19601f820116820180604052508101906111699190611c50565b5061117e67f9707f55478b193160c01b61176b565b611192677be1a077613e458a60c01b61176b565b600160009054906101000a900473ffffffffffffffffffffffffffffffffffffffff1673ffffffffffffffffffffffffffffffffffffffff166323b872dd3330856040518463ffffffff1660e01b81526004016111f193929190611be1565b6020604051808303816000875af1158015611210573d6000803e3d6000fd5b505050506040513d601f19601f820116820180604052508101906112349190611c50565b5061124967840fe88b0b40989a60c01b61176b565b826002600082825461125b9190611cd5565b925050819055506112766729f45c5162adf15f60c01b61176b565b81600360008282546112889190611cd5565b925050819055506112a3675a0f75ed74c5559360c01b61176b565b80600460008282546112b59190611cd5565b925050819055506112d0671d3ab2e6b093e61360c01b61176b565b80600560003373ffffffffffffffffffffffffffffffffffffffff1673ffffffffffffffffffffffffffffffffffffffff168152602001908152602001600020600082825461131f9190611cd5565b9250508190555061133a6725d773cfd7e473f360c01b61176b565b61134e676ff830c2a093d7bf60c01b61176b565b3373ffffffffffffffffffffffffffffffffffffffff167f64b83944e79c3ce8d4c297411de637c3e102d064677aac0c163976ebdcd6f50e84848460405161139893929190611f8f565b60405180910390a292915050565b60056020528060005260406000206000915090505481565b60025481565b60006113da676f0c0b45b3ec44eb60c01b61176b565b6113ee67a12c51a2824c40ea60c01b61176b565b611402674eb4c1a791d9113e60c01b61176b565b61141667236a226d5f41c35d60c01b61176b565b60008211611459576040517f08c379a000000000000000000000000000000000000000000000000000000000815260040161145090611bc1565b60405180910390fd5b61146d678dc3760e4f8cfc9c60c01b61176b565b61148167a139cd31990393c160c01b61176b565b6114908260035460025461066f565b90506114a6673828f594650cedc960c01b61176b565b6114ba67f597d8b2ee58793a60c01b61176b565b600160009054906101000a900473ffffffffffffffffffffffffffffffffffffffff1673ffffffffffffffffffffffffffffffffffffffff166323b872dd3330856040518463ffffffff1660e01b815260040161151993929190611be1565b6020604051808303816000875af1158015611538573d6000803e3d6000fd5b505050506040513d601f19601f8201168201806040525081019061155c9190611c50565b506115716728635e9a3740872b60c01b61176b565b611585671877daf322bf06af60c01b61176b565b60008054906101000a900473ffffffffffffffffffffffffffffffffffffffff1673ffffffffffffffffffffffffffffffffffffffff1663a9059cbb33836040518363ffffffff1660e01b81526004016115e0929190611c7d565b6020604051808303816000875af11580156115ff573d6000803e3d6000fd5b505050506040513d601f19601f820116820180604052508101906116239190611c50565b506116386769e2d8d49ace2e9c60c01b61176b565b816003600082825461164a9190611cd5565b9250508190555061166567ff076705cd3d3dcd60c01b61176b565b80600260008282546116779190611d09565b92505081905550611692678e73c290d9ccb8d360c01b61176b565b6116a6676fcf2d6708b12ccf60c01b61176b565b60008054906101000a900473ffffffffffffffffffffffffffffffffffffffff1673ffffffffffffffffffffffffffffffffffffffff16600160009054906101000a900473ffffffffffffffffffffffffffffffffffffffff1673ffffffffffffffffffffffffffffffffffffffff163373ffffffffffffffffffffffffffffffffffffffff167fcd3829a3813dc3cdd188fd3d01dcf3268c16be2fdd2dd21d0665418816e46062858560405161175e929190611a46565b60405180910390a4919050565b50565b60008082036117805760009050611862565b6000600161178d84611867565b901c6001901b905060018184816117a7576117a6611e57565b5b048201901c905060018184816117c0576117bf611e57565b5b048201901c905060018184816117d9576117d8611e57565b5b048201901c905060018184816117f2576117f1611e57565b5b048201901c9050600181848161180b5761180a611e57565b5b048201901c9050600181848161182457611823611e57565b5b048201901c9050600181848161183d5761183c611e57565b5b048201901c905061185e8182858161185857611857611e57565b5b04611948565b9150505b919050565b600080600090506000608084901c111561188957608083901c92506080810190505b6000604084901c11156118a457604083901c92506040810190505b6000602084901c11156118bf57602083901c92506020810190505b6000601084901c11156118da57601083901c92506010810190505b6000600884901c11156118f557600883901c92506008810190505b6000600484901c111561191057600483901c92506004810190505b6000600284901c111561192b57600283901c92506002810190505b6000600184901c111561193f576001810190505b80915050919050565b60008183106119575781611959565b825b905092915050565b600080fd5b6000819050919050565b61197981611966565b811461198457600080fd5b50565b60008135905061199681611970565b92915050565b6000602082840312156119b2576119b1611961565b5b60006119c084828501611987565b91505092915050565b6119d281611966565b82525050565b60006020820190506119ed60008301846119c9565b92915050565b600080600060608486031215611a0c57611a0b611961565b5b6000611a1a86828701611987565b9350506020611a2b86828701611987565b9250506040611a3c86828701611987565b9150509250925092565b6000604082019050611a5b60008301856119c9565b611a6860208301846119c9565b9392505050565b600073ffffffffffffffffffffffffffffffffffffffff82169050919050565b6000611a9a82611a6f565b9050919050565b611aaa81611a8f565b82525050565b6000602082019050611ac56000830184611aa1565b92915050565b60008060408385031215611ae257611ae1611961565b5b6000611af085828601611987565b9250506020611b0185828601611987565b9150509250929050565b611b1481611a8f565b8114611b1f57600080fd5b50565b600081359050611b3181611b0b565b92915050565b600060208284031215611b4d57611b4c611961565b5b6000611b5b84828501611b22565b91505092915050565b600082825260208201905092915050565b7f416d6f756e74206d7573742062652067726561746572207468616e2030000000600082015250565b6000611bab601d83611b64565b9150611bb682611b75565b602082019050919050565b60006020820190508181036000830152611bda81611b9e565b9050919050565b6000606082019050611bf66000830186611aa1565b611c036020830185611aa1565b611c1060408301846119c9565b949350505050565b60008115159050919050565b611c2d81611c18565b8114611c3857600080fd5b50565b600081519050611c4a81611c24565b92915050565b600060208284031215611c6657611c65611961565b5b6000611c7484828501611c3b565b91505092915050565b6000604082019050611c926000830185611aa1565b611c9f60208301846119c9565b9392505050565b7f4e487b7100000000000000000000000000000000000000000000000000000000600052601160045260246000fd5b6000611ce082611966565b9150611ceb83611966565b9250828201905080821115611d0357611d02611ca6565b5b92915050565b6000611d1482611966565b9150611d1f83611966565b9250828203905081811115611d3757611d36611ca6565b5b92915050565b7f496e73756666696369656e7420696e70757420616d6f756e7400000000000000600082015250565b6000611d73601983611b64565b9150611d7e82611d3d565b602082019050919050565b60006020820190508181036000830152611da281611d66565b9050919050565b7f496e73756666696369656e74206c697175696469747900000000000000000000600082015250565b6000611ddf601683611b64565b9150611dea82611da9565b602082019050919050565b60006020820190508181036000830152611e0e81611dd2565b9050919050565b6000611e2082611966565b9150611e2b83611966565b9250828202611e3981611966565b91508282048414831517611e5057611e4f611ca6565b5b5092915050565b7f4e487b7100000000000000000000000000000000000000000000000000000000600052601260045260246000fd5b6000611e9182611966565b9150611e9c83611966565b925082611eac57611eab611e57565b5b828204905092915050565b7f5265736572766541206973203000000000000000000000000000000000000000600082015250565b6000611eed600d83611b64565b9150611ef882611eb7565b602082019050919050565b60006020820190508181036000830152611f1c81611ee0565b9050919050565b7f496e73756666696369656e74204c5020746f6b656e7300000000000000000000600082015250565b6000611f59601683611b64565b9150611f6482611f23565b602082019050919050565b60006020820190508181036000830152611f8881611f4c565b9050919050565b6000606082019050611fa460008301866119c9565b611fb160208301856119c9565b611fbe60408301846119c9565b949350505050565b7f416d6f756e7473206d7573742062652067726561746572207468616e20300000600082015250565b6000611ffc601e83611b64565b915061200782611fc6565b602082019050919050565b6000602082019050818103600083015261202b81611fef565b9050919050565b7f496e636f7272656374206c697175696469747920726174696f00000000000000600082015250565b6000612068601983611b64565b915061207382612032565b602082019050919050565b600060208201905081810360008301526120978161205b565b905091905056fea2646970667358221220d5b40bc6c2647672cdf21e5e68c268e8b25501edab7618e1665cdcbfe291ef8a64736f6c63430008130033",
  "linkReferences": {},
  "deployedLinkReferences": {}
}