{
  "_format": "hh-sol-artifact-1",
  "contractName": "DEX",
  "sourceName": "contracts/DEX.sol",
  "abi": [
    {
      "inputs": [
        {
          "internalType": "address",
          "name": "_tokenA",
          "type": "address"
        },
        {
          "internalType": "address",
          "name": "_tokenB",
          "type": "address"
        }
      ],
      "stateMutability": "nonpayable",
      "type": "constructor"
    },
    {
      "anonymous": false,
      "inputs": [
        {
          "indexed": true,
          "internalType": "address",
          "name": "owner",
          "type": "address"
        },
        {
          "indexed": true,
          "internalType": "address",
          "name": "spender",
          "type": "address"
        },
        {
          "indexed": false,
          "internalType": "uint256",
          "name": "value",
          "type": "uint256"
        }
      ],
      "name": "Approval",
      "type": "event"
    },
    {
      "anonymous": false,
      "inputs": [
        {
          "indexed": true,
          "internalType": "address",
          "name": "provider",
          "type": "address"
        },
        {
          "indexed": false,
          "internalType": "uint256",
          "name": "amountA",
          "type": "uint256"
        },
        {
          "indexed": false,
          "internalType": "uint256",
          "name": "amountB",
          "type": "uint256"
        },
        {
          "indexed": false,
          "internalType": "uint256",
          "name": "liquidityMinted",
          "type": "uint256"
        }
      ],
      "name": "LiquidityAdded",
      "type": "event"
    },
    {
      "anonymous": false,
      "inputs": [
        {
          "indexed": true,
          "internalType": "address",
          "name": "provider",
          "type": "address"
        },
        {
          "indexed": false,
          "internalType": "uint256",
          "name": "amountA",
          "type": "uint256"
        },
        {
          "indexed": false,
          "internalType": "uint256",
          "name": "amountB",
          "type": "uint256"
        },
        {
          "indexed": false,
          "internalType": "uint256",
          "name": "liquidityBurned",
          "type": "uint256"
        }
      ],
      "name": "LiquidityRemoved",
      "type": "event"
    },
    {
      "anonymous": false,
      "inputs": [
        {
          "indexed": true,
          "internalType": "address",
          "name": "trader",
          "type": "address"
        },
        {
          "indexed": true,
          "internalType": "address",
          "name": "tokenIn",
          "type": "address"
        },
        {
          "indexed": true,
          "internalType": "address",
          "name": "tokenOut",
          "type": "address"
        },
        {
          "indexed": false,
          "internalType": "uint256",
          "name": "amountIn",
          "type": "uint256"
        },
        {
          "indexed": false,
          "internalType": "uint256",
          "name": "amountOut",
          "type": "uint256"
        }
      ],
      "name": "Swap",
      "type": "event"
    },
    {
      "anonymous": false,
      "inputs": [
        {
          "indexed": true,
          "internalType": "address",
          "name": "from",
          "type": "address"
        },
        {
          "indexed": true,
          "internalType": "address",
          "name": "to",
          "type": "address"
        },
        {
          "indexed": false,
          "internalType": "uint256",
          "name": "value",
          "type": "uint256"
        }
      ],
      "name": "Transfer",
      "type": "event"
    },
    {
      "inputs": [
        {
          "internalType": "uint256",
          "name": "amountA",
          "type": "uint256"
        },
        {
          "internalType": "uint256",
          "name": "amountB",
          "type": "uint256"
        }
      ],
      "name": "addLiquidity",
      "outputs": [
        {
          "internalType": "uint256",
          "name": "liquidityMinted",
          "type": "uint256"
        }
      ],
      "stateMutability": "nonpayable",
      "type": "function"
    },
    {
      "inputs": [
        {
          "internalType": "address",
          "name": "owner",
          "type": "address"
        },
        {
          "internalType": "address",
          "name": "spender",
          "type": "address"
        }
      ],
      "name": "allowance",
      "outputs": [
        {
          "internalType": "uint256",
          "name": "",
          "type": "uint256"
        }
      ],
      "stateMutability": "view",
      "type": "function"
    },
    {
      "inputs": [
        {
          "internalType": "address",
          "name": "spender",
          "type": "address"
        },
        {
          "internalType": "uint256",
          "name": "amount",
          "type": "uint256"
        }
      ],
      "name": "approve",
      "outputs": [
        {
          "internalType": "bool",
          "name": "",
          "type": "bool"
        }
      ],
      "stateMutability": "nonpayable",
      "type": "function"
    },
    {
      "inputs": [
        {
          "internalType": "address",
          "name": "account",
          "type": "address"
        }
      ],
      "name": "balanceOf",
      "outputs": [
        {
          "internalType": "uint256",
          "name": "",
          "type": "uint256"
        }
      ],
      "stateMutability": "view",
      "type": "function"
    },
    {
      "inputs": [],
      "name": "decimals",
      "outputs": [
        {
          "internalType": "uint8",
          "name": "",
          "type": "uint8"
        }
      ],
      "stateMutability": "view",
      "type": "function"
    },
    {
      "inputs": [
        {
          "internalType": "address",
          "name": "spender",
          "type": "address"
        },
        {
          "internalType": "uint256",
          "name": "subtractedValue",
          "type": "uint256"
        }
      ],
      "name": "decreaseAllowance",
      "outputs": [
        {
          "internalType": "bool",
          "name": "",
          "type": "bool"
        }
      ],
      "stateMutability": "nonpayable",
      "type": "function"
    },
    {
      "inputs": [
        {
          "internalType": "uint256",
          "name": "amountIn",
          "type": "uint256"
        },
        {
          "internalType": "uint256",
          "name": "_reserveIn",
          "type": "uint256"
        },
        {
          "internalType": "uint256",
          "name": "_reserveOut",
          "type": "uint256"
        }
      ],
      "name": "getAmountOut",
      "outputs": [
        {
          "internalType": "uint256",
          "name": "amountOut",
          "type": "uint256"
        }
      ],
      "stateMutability": "pure",
      "type": "function"
    },
    {
      "inputs": [],
      "name": "getPrice",
      "outputs": [
        {
          "internalType": "uint256",
          "name": "price",
          "type": "uint256"
        }
      ],
      "stateMutability": "view",
      "type": "function"
    },
    {
      "inputs": [],
      "name": "getReserves",
      "outputs": [
        {
          "internalType": "uint256",
          "name": "_reserveA",
          "type": "uint256"
        },
        {
          "internalType": "uint256",
          "name": "_reserveB",
          "type": "uint256"
        }
      ],
      "stateMutability": "view",
      "type": "function"
    },
    {
      "inputs": [
        {
          "internalType": "address",
          "name": "spender",
          "type": "address"
        },
        {
          "internalType": "uint256",
          "name": "addedValue",
          "type": "uint256"
        }
      ],
      "name": "increaseAllowance",
      "outputs": [
        {
          "internalType": "bool",
          "name": "",
          "type": "bool"
        }
      ],
      "stateMutability": "nonpayable",
      "type": "function"
    },
    {
      "inputs": [],
      "name": "name",
      "outputs": [
        {
          "internalType": "string",
          "name": "",
          "type": "string"
        }
      ],
      "stateMutability": "view",
      "type": "function"
    },
    {
      "inputs": [
        {
          "internalType": "uint256",
          "name": "liquidityAmount",
          "type": "uint256"
        }
      ],
      "name": "removeLiquidity",
      "outputs": [
        {
          "internalType": "uint256",
          "name": "amountA",
          "type": "uint256"
        },
        {
          "internalType": "uint256",
          "name": "amountB",
          "type": "uint256"
        }
      ],
      "stateMutability": "nonpayable",
      "type": "function"
    },
    {
      "inputs": [],
      "name": "reserveA",
      "outputs": [
        {
          "internalType": "uint256",
          "name": "",
          "type": "uint256"
        }
      ],
      "stateMutability": "view",
      "type": "function"
    },
    {
      "inputs": [],
      "name": "reserveB",
      "outputs": [
        {
          "internalType": "uint256",
          "name": "",
          "type": "uint256"
        }
      ],
      "stateMutability": "view",
      "type": "function"
    },
    {
      "inputs": [
        {
          "internalType": "uint256",
          "name": "amountAIn",
          "type": "uint256"
        }
      ],
      "name": "swapAforB",
      "outputs": [
        {
          "internalType": "uint256",
          "name": "amountBOut",
          "type": "uint256"
        }
      ],
      "stateMutability": "nonpayable",
      "type": "function"
    },
    {
      "inputs": [
        {
          "internalType": "uint256",
          "name": "amountBIn",
          "type": "uint256"
        }
      ],
      "name": "swapBforA",
      "outputs": [
        {
          "internalType": "uint256",
          "name": "amountAOut",
          "type": "uint256"
        }
      ],
      "stateMutability": "nonpayable",
      "type": "function"
    },
    {
      "inputs": [],
      "name": "symbol",
      "outputs": [
        {
          "internalType": "string",
          "name": "",
          "type": "string"
        }
      ],
      "stateMutability": "view",
      "type": "function"
    },
    {
      "inputs": [],
      "name": "tokenA",
      "outputs": [
        {
          "internalType": "address",
          "name": "",
          "type": "address"
        }
      ],
      "stateMutability": "view",
      "type": "function"
    },
    {
      "inputs": [],
      "name": "tokenB",
      "outputs": [
        {
          "internalType": "address",
          "name": "",
          "type": "address"
        }
      ],
      "stateMutability": "view",
      "type": "function"
    },
    {
      "inputs": [],
      "name": "totalSupply",
      "outputs": [
        {
          "internalType": "uint256",
          "name": "",
          "type": "uint256"
        }
      ],
      "stateMutability": "view",
      "type": "function"
    },
    {
      "inputs": [
        {
          "internalType": "address",
          "name": "to",
          "type": "address"
        },
        {
          "internalType": "uint256",
          "name": "amount",
          "type": "uint256"
        }
      ],
      "name": "transfer",
      "outputs": [
        {
          "internalType": "bool",
          "name": "",
          "type": "bool"
        }
      ],
      "stateMutability": "nonpayable",
      "type": "function"
    },
    {
      "inputs": [
        {
          "internalType": "address",
          "name": "from",
          "type": "address"
        },
        {
          "internalType": "address",
          "name": "to",
          "type": "address"
        },
        {
          "internalType": "uint256",
          "name": "amount",
          "type": "uint256"
        }
      ],
      "name": "transferFrom",
      "outputs": [
        {
          "internalType": "bool",
          "name": "",
          "type": "bool"
        }
      ],
      "stateMutability": "nonpayable",
      "type": "function"
    }
  ],
  "bytecode": "0x60c06040523480156200001157600080fd5b5060405162003da038038062003da083398181016040528101906200003791906200031f565b6040518060400160405280600c81526020017f444558204c5020546f6b656e00000000000000000000000000000000000000008152506040518060400160405280600681526020017f4445582d4c5000000000000000000000000000000000000000000000000000008152508160039081620000b49190620005e0565b508060049081620000c69190620005e0565b5050506001600581905550620000ed6764aae7211ab6c09260c01b620002b260201b60201c565b6200010967601e86057923728c60c01b620002b260201b60201c565b62000125676f19f44f64dac67060c01b620002b260201b60201c565b6200014167b3b07e3689e90f9760c01b620002b260201b60201c565b600073ffffffffffffffffffffffffffffffffffffffff168273ffffffffffffffffffffffffffffffffffffffff1614158015620001ac5750600073ffffffffffffffffffffffffffffffffffffffff168173ffffffffffffffffffffffffffffffffffffffff1614155b620001ee576040517f08c379a0000000000000000000000000000000000000000000000000000000008152600401620001e59062000728565b60405180910390fd5b6200020a67450e19efc4d7686160c01b620002b260201b60201c565b6200022667b9321a3c512c60f560c01b620002b260201b60201c565b8173ffffffffffffffffffffffffffffffffffffffff1660808173ffffffffffffffffffffffffffffffffffffffff16815250506200027667efe348eb2eee6de460c01b620002b260201b60201c565b8073ffffffffffffffffffffffffffffffffffffffff1660a08173ffffffffffffffffffffffffffffffffffffffff168152505050506200074a565b50565b600080fd5b600073ffffffffffffffffffffffffffffffffffffffff82169050919050565b6000620002e782620002ba565b9050919050565b620002f981620002da565b81146200030557600080fd5b50565b6000815190506200031981620002ee565b92915050565b60008060408385031215620003395762000338620002b5565b5b6000620003498582860162000308565b92505060206200035c8582860162000308565b9150509250929050565b600081519050919050565b7f4e487b7100000000000000000000000000000000000000000000000000000000600052604160045260246000fd5b7f4e487b7100000000000000000000000000000000000000000000000000000000600052602260045260246000fd5b60006002820490506001821680620003e857607f821691505b602082108103620003fe57620003fd620003a0565b5b50919050565b60008190508160005260206000209050919050565b60006020601f8301049050919050565b600082821b905092915050565b600060088302620004687fffffffffffffffffffffffffffffffffffffffffffffffffffffffffffffffff8262000429565b62000474868362000429565b95508019841693508086168417925050509392505050565b6000819050919050565b6000819050919050565b6000620004c1620004bb620004b5846200048c565b62000496565b6200048c565b9050919050565b6000819050919050565b620004dd83620004a0565b620004f5620004ec82620004c8565b84845462000436565b825550505050565b600090565b6200050c620004fd565b62000519818484620004d2565b505050565b5b8181101562000541576200053560008262000502565b6001810190506200051f565b5050565b601f82111562000590576200055a8162000404565b620005658462000419565b8101602085101562000575578190505b6200058d620005848562000419565b8301826200051e565b50505b505050565b600082821c905092915050565b6000620005b56000198460080262000595565b1980831691505092915050565b6000620005d08383620005a2565b9150826002028217905092915050565b620005eb8262000366565b67ffffffffffffffff81111562000607576200060662000371565b5b620006138254620003cf565b6200062082828562000545565b600060209050601f83116001811462000658576000841562000643578287015190505b6200064f8582620005c2565b865550620006bf565b601f198416620006688662000404565b60005b8281101562000692578489015182556001820191506020850194506020810190506200066b565b86831015620006b25784890151620006ae601f891682620005a2565b8355505b6001600288020188555050505b505050505050565b600082825260208201905092915050565b7f496e76616c696420616464726573736573000000000000000000000000000000600082015250565b600062000710601183620006c7565b91506200071d82620006d8565b602082019050919050565b60006020820190508181036000830152620007438162000701565b9050919050565b60805160a0516135dc620007c4600039600081816108080152818161099801528181610bb9015281816110c1015281816113be01528181611a290152611b4a01526000818161076501528181610a6101528181610b8201528181610ffa015281816112f5015281816119600152611b8101526135dc6000f3fe608060405234801561001057600080fd5b50600436106101425760003560e01c806370a08231116100b85780639cd441da1161007c5780639cd441da146103a7578063a457c2d7146103d7578063a9059cbb14610407578063dc5fa6c514610437578063dd62ed3e14610455578063e4f1f70a1461048557610142565b806370a08231146102da5780638014a7aa1461030a57806395d89b411461033a57806398d5fdca146103585780639c8f9f231461037657610142565b806318160ddd1161010a57806318160ddd1461020257806319e36f3b1461022057806323b872dd1461023e578063313ce5671461026e578063395093511461028c5780635f64b55b146102bc57610142565b8063054d50d41461014757806306fdde03146101775780630902f1ac14610195578063095ea7b3146101b45780630fc63d10146101e4575b600080fd5b610161600480360381019061015c9190612707565b6104b5565b60405161016e9190612769565b60405180910390f35b61017f610661565b60405161018c9190612814565b60405180910390f35b61019d6106f3565b6040516101ab929190612836565b60405180910390f35b6101ce60048036038101906101c991906128bd565b610740565b6040516101db9190612918565b60405180910390f35b6101ec610763565b6040516101f99190612942565b60405180910390f35b61020a610787565b6040516102179190612769565b60405180910390f35b610228610791565b6040516102359190612769565b60405180910390f35b6102586004803603810190610253919061295d565b610797565b6040516102659190612918565b60405180910390f35b6102766107c6565b60405161028391906129cc565b60405180910390f35b6102a660048036038101906102a191906128bd565b6107cf565b6040516102b39190612918565b60405180910390f35b6102c4610806565b6040516102d19190612942565b60405180910390f35b6102f460048036038101906102ef91906129e7565b61082a565b6040516103019190612769565b60405180910390f35b610324600480360381019061031f9190612a14565b610872565b6040516103319190612769565b60405180910390f35b610342610c4b565b60405161034f9190612814565b60405180910390f35b610360610cdd565b60405161036d9190612769565b60405180910390f35b610390600480360381019061038b9190612a14565b610dd8565b60405161039e929190612836565b60405180910390f35b6103c160048036038101906103bc9190612a41565b6111e6565b6040516103ce9190612769565b60405180910390f35b6103f160048036038101906103ec91906128bd565b611711565b6040516103fe9190612918565b60405180910390f35b610421600480360381019061041c91906128bd565b611788565b60405161042e9190612918565b60405180910390f35b61043f6117ab565b60405161044c9190612769565b60405180910390f35b61046f600480360381019061046a9190612a81565b6117b1565b60405161047c9190612769565b60405180910390f35b61049f600480360381019061049a9190612a14565b611838565b6040516104ac9190612769565b60405180910390f35b60006104cb67a1260debcaa4980260c01b611c13565b6104df678927c4ee8b411a6960c01b611c13565b6104f367ae2f862056bc329c60c01b611c13565b61050767a6c6a7b816d7c10c60c01b611c13565b6000831180156105175750600082115b610556576040517f08c379a000000000000000000000000000000000000000000000000000000000815260040161054d90612b0d565b60405180910390fd5b61056a676fd6ad6b50a86eb760c01b611c13565b61057e67fcf89f619565323a60c01b611c13565b610592672d78754a40e5d4b160c01b611c13565b60006103e5856105a29190612b5c565b90506105b867f704b5f91dbc517a60c01b611c13565b6105cc672e2b0302104f5d2660c01b611c13565b600083826105da9190612b5c565b90506105f067844b7c0562a0ad6660c01b611c13565b61060467f9233b8cceec98a260c01b611c13565b6000826103e8876106159190612b5c565b61061f9190612b9e565b905061063567a7190270043e562260c01b611c13565b61064967962ae589aede901c60c01b611c13565b80826106559190612c01565b93505050509392505050565b60606003805461067090612c61565b80601f016020809104026020016040519081016040528092919081815260200182805461069c90612c61565b80156106e95780601f106106be576101008083540402835291602001916106e9565b820191906000526020600020905b8154815290600101906020018083116106cc57829003601f168201915b5050505050905090565b60008061070a67dd7d7b4fee5e8a2460c01b611c13565b61071e6767b1553ea830595960c01b611c13565b61073267452d496a849c444b60c01b611c13565b600654600754915091509091565b60008061074b611c16565b9050610758818585611c1e565b600191505092915050565b7f000000000000000000000000000000000000000000000000000000000000000081565b6000600254905090565b60075481565b6000806107a2611c16565b90506107af858285611de7565b6107ba858585611e73565b60019150509392505050565b60006012905090565b6000806107da611c16565b90506107fb8185856107ec85896117b1565b6107f69190612b9e565b611c1e565b600191505092915050565b7f000000000000000000000000000000000000000000000000000000000000000081565b60008060008373ffffffffffffffffffffffffffffffffffffffff1673ffffffffffffffffffffffffffffffffffffffff168152602001908152602001600020549050919050565b60006108886790a8360a3a760d1060c01b611c13565b6108906120e9565b6108a4670f9cc8cdc32167d360c01b611c13565b6108b86753e2d0e5fe1e287160c01b611c13565b6108cc67b517114da1462b2560c01b611c13565b6108e0671afbb9b317ee1fe660c01b611c13565b6108f4675fd550124c3083fe60c01b611c13565b60008211610937576040517f08c379a000000000000000000000000000000000000000000000000000000000815260040161092e90612cde565b60405180910390fd5b61094a66e86e4fa9e06be660c01b611c13565b61095e674a452febc99fab6e60c01b611c13565b61096d826007546006546104b5565b90506109836762581e5f9f445eca60c01b611c13565b61099666f17dc7de4d653b60c01b611c13565b7f000000000000000000000000000000000000000000000000000000000000000073ffffffffffffffffffffffffffffffffffffffff166323b872dd3330856040518463ffffffff1660e01b81526004016109f393929190612cfe565b6020604051808303816000875af1158015610a12573d6000803e3d6000fd5b505050506040513d601f19601f82011682018060405250810190610a369190612d61565b50610a4b67608a9ba0d05a36a360c01b611c13565b610a5f67cf504e9267127e1960c01b611c13565b7f000000000000000000000000000000000000000000000000000000000000000073ffffffffffffffffffffffffffffffffffffffff1663a9059cbb33836040518363ffffffff1660e01b8152600401610aba929190612d8e565b6020604051808303816000875af1158015610ad9573d6000803e3d6000fd5b505050506040513d601f19601f82011682018060405250810190610afd9190612d61565b50610b1267fd00cde3cefd1f9460c01b611c13565b8160076000828254610b249190612b9e565b92505081905550610b3f6711a9983ed81fb39860c01b611c13565b8060066000828254610b519190612db7565b92505081905550610b6c67e012944b18ca8d0660c01b611c13565b610b806747020d1180844a5860c01b611c13565b7f000000000000000000000000000000000000000000000000000000000000000073ffffffffffffffffffffffffffffffffffffffff167f000000000000000000000000000000000000000000000000000000000000000073ffffffffffffffffffffffffffffffffffffffff163373ffffffffffffffffffffffffffffffffffffffff167fcd3829a3813dc3cdd188fd3d01dcf3268c16be2fdd2dd21d0665418816e460628585604051610c36929190612836565b60405180910390a4610c46612138565b919050565b606060048054610c5a90612c61565b80601f0160208091040260200160405190810160405280929190818152602001828054610c8690612c61565b8015610cd35780601f10610ca857610100808354040283529160200191610cd3565b820191906000526020600020905b815481529060010190602001808311610cb657829003601f168201915b5050505050905090565b6000610cf367a289f6d1e1ef9b1860c01b611c13565b610d0767f72132c81f838c8560c01b611c13565b610d1b675f57d30bfd4895d660c01b611c13565b610d2f67966f8e2110209e7860c01b611c13565b600060065411610d74576040517f08c379a0000000000000000000000000000000000000000000000000000000008152600401610d6b90612e37565b60405180910390fd5b610d886749a685362020e17160c01b611c13565b610d9c6774d000d77446428d60c01b611c13565b610db067f3a4cccc5cdeeb0e60c01b611c13565b600654670de0b6b3a7640000600754610dc99190612b5c565b610dd39190612c01565b905090565b600080610def6743e1f10a8a98ec5c60c01b611c13565b610df76120e9565b610e0b673227040521cd2f0f60c01b611c13565b610e1f67da8771bd9241996e60c01b611c13565b610e33676ffd78fef64a1f6960c01b611c13565b610e4767609a7a8e393c82ff60c01b611c13565b610e5b6783aa11b5c109ea3760c01b611c13565b60008311610e9e576040517f08c379a0000000000000000000000000000000000000000000000000000000008152600401610e9590612ea3565b60405180910390fd5b610eb267253578a76622ba0d60c01b611c13565b610ec667f8b7c1ec400072e560c01b611c13565b610eda6786e4cb6b0031c3e160c01b611c13565b6000610ee4610787565b9050610efa675471ef3207d988b860c01b611c13565b8060065485610f099190612b5c565b610f139190612c01565b9250610f2967ecdf46c5c7cb9e2b60c01b611c13565b8060075485610f389190612b5c565b610f429190612c01565b9150610f586732e11753c0fef0d960c01b611c13565b610f6c67fbe8bef10071925360c01b611c13565b610f763385612142565b610f8a672897463866f52f9260c01b611c13565b8260066000828254610f9c9190612db7565b92505081905550610fb767d1b876c7b9ad8f7860c01b611c13565b8160076000828254610fc99190612db7565b92505081905550610fe4678988ff66b27e1ffe60c01b611c13565b610ff867ab7dd7d86132446860c01b611c13565b7f000000000000000000000000000000000000000000000000000000000000000073ffffffffffffffffffffffffffffffffffffffff1663a9059cbb33856040518363ffffffff1660e01b8152600401611053929190612d8e565b6020604051808303816000875af1158015611072573d6000803e3d6000fd5b505050506040513d601f19601f820116820180604052508101906110969190612d61565b506110ab67cd1b9915bdda306360c01b611c13565b6110bf677f95eb80cf75835260c01b611c13565b7f000000000000000000000000000000000000000000000000000000000000000073ffffffffffffffffffffffffffffffffffffffff1663a9059cbb33846040518363ffffffff1660e01b815260040161111a929190612d8e565b6020604051808303816000875af1158015611139573d6000803e3d6000fd5b505050506040513d601f19601f8201168201806040525081019061115d9190612d61565b5061117267fed106ca89cd01d360c01b611c13565b611186671aeb314cfcf5f1e360c01b611c13565b3373ffffffffffffffffffffffffffffffffffffffff167f1dc8bb69df2b8e91fbdcbfcf93d951b3f0000f085a95fe3f7946d6161439245d8484876040516111d093929190612ec3565b60405180910390a2506111e1612138565b915091565b60006111fc675b372ed92c25f6c560c01b611c13565b6112046120e9565b61121867c9b228b357beb55760c01b611c13565b61122c671065aefffecf03f160c01b611c13565b6112406709c5e3f141a5414060c01b611c13565b61125467c57c62822ce8735e60c01b611c13565b6112686768e0dcaf2209bd3260c01b611c13565b6000831180156112785750600082115b6112b7576040517f08c379a00000000000000000000000000000000000000000000000000000000081526004016112ae90612f46565b60405180910390fd5b6112cb675211de116b8ace3060c01b611c13565b6112df6736e434ec7e1080ac60c01b611c13565b6112f367383ea8b3463c53d760c01b611c13565b7f000000000000000000000000000000000000000000000000000000000000000073ffffffffffffffffffffffffffffffffffffffff166323b872dd3330866040518463ffffffff1660e01b815260040161135093929190612cfe565b6020604051808303816000875af115801561136f573d6000803e3d6000fd5b505050506040513d601f19601f820116820180604052508101906113939190612d61565b506113a86723de50e2367edc8b60c01b611c13565b6113bc679d49e572bbf8f74060c01b611c13565b7f000000000000000000000000000000000000000000000000000000000000000073ffffffffffffffffffffffffffffffffffffffff166323b872dd3330856040518463ffffffff1660e01b815260040161141993929190612cfe565b6020604051808303816000875af1158015611438573d6000803e3d6000fd5b505050506040513d601f19601f8201168201806040525081019061145c9190612d61565b5061147167c08488370c4c61d460c01b611c13565b611485674ef366d251689b0560c01b611c13565b600061148f610787565b90506114a567e4725307c122627860c01b611c13565b6114b9674e198db302260c7560c01b611c13565b60008103611504576114d567330e18e8489c545e60c01b611c13565b6114e96762b9d595eb09f23260c01b611c13565b6114fd83856114f89190612b5c565b61230f565b9150611569565b611518674a346fab76c7ac1f60c01b611c13565b61152c67520e24a6206ce8ba60c01b611c13565b611566600654828661153e9190612b5c565b6115489190612c01565b60075483866115579190612b5c565b6115619190612c01565b6124ce565b91505b61157d67267ef47893cb107460c01b611c13565b61159167ce7e4cbb247f5d3560c01b611c13565b6115a56747fd82eea3e8e2bc60c01b611c13565b600082116115e8576040517f08c379a00000000000000000000000000000000000000000000000000000000081526004016115df90612fb2565b60405180910390fd5b6115fc677725df995bb2140d60c01b611c13565b61161067b60df91049f9d98460c01b611c13565b83600660008282546116229190612b9e565b9250508190555061163d678a2fea300585ddaf60c01b611c13565b826007600082825461164f9190612b9e565b9250508190555061166a67797680eab0d2935a60c01b611c13565b61167e6785fd3f9c7afcf98260c01b611c13565b611688338361255a565b61169c67504e9a73d6f1612260c01b611c13565b6116b067a1f197d92889f86160c01b611c13565b3373ffffffffffffffffffffffffffffffffffffffff167f64b83944e79c3ce8d4c297411de637c3e102d064677aac0c163976ebdcd6f50e8585856040516116fa93929190612ec3565b60405180910390a25061170b612138565b92915050565b60008061171c611c16565b9050600061172a82866117b1565b90508381101561176f576040517f08c379a000000000000000000000000000000000000000000000000000000000815260040161176690613044565b60405180910390fd5b61177c8286868403611c1e565b60019250505092915050565b600080611793611c16565b90506117a0818585611e73565b600191505092915050565b60065481565b6000600160008473ffffffffffffffffffffffffffffffffffffffff1673ffffffffffffffffffffffffffffffffffffffff16815260200190815260200160002060008373ffffffffffffffffffffffffffffffffffffffff1673ffffffffffffffffffffffffffffffffffffffff16815260200190815260200160002054905092915050565b600061184e67cf79f0b12f6cb2d860c01b611c13565b6118566120e9565b61186a67d2b08470ec00819d60c01b611c13565b61187e672df6ea001c2c673260c01b611c13565b611892675d4c44fbc792c19460c01b611c13565b6118a667540de40f9deb4b0f60c01b611c13565b6118ba67b5350f6dddb6bef760c01b611c13565b600082116118fd576040517f08c379a00000000000000000000000000000000000000000000000000000000081526004016118f490612cde565b60405180910390fd5b611911672f8bf35e258bf1e360c01b611c13565b611925676812d3aa5912318e60c01b611c13565b611934826006546007546104b5565b905061194a670205ed9868928db060c01b611c13565b61195e6706cb56ce6eff387560c01b611c13565b7f000000000000000000000000000000000000000000000000000000000000000073ffffffffffffffffffffffffffffffffffffffff166323b872dd3330856040518463ffffffff1660e01b81526004016119bb93929190612cfe565b6020604051808303816000875af11580156119da573d6000803e3d6000fd5b505050506040513d601f19601f820116820180604052508101906119fe9190612d61565b50611a1367348fcccdf5e31bef60c01b611c13565b611a27678a5f0c37b2a3fa8f60c01b611c13565b7f000000000000000000000000000000000000000000000000000000000000000073ffffffffffffffffffffffffffffffffffffffff1663a9059cbb33836040518363ffffffff1660e01b8152600401611a82929190612d8e565b6020604051808303816000875af1158015611aa1573d6000803e3d6000fd5b505050506040513d601f19601f82011682018060405250810190611ac59190612d61565b50611ada67bf9ca274f8c160d760c01b611c13565b8160066000828254611aec9190612b9e565b92505081905550611b0767cb98078c699b9fd960c01b611c13565b8060076000828254611b199190612db7565b92505081905550611b346760c50211bf1342cd60c01b611c13565b611b486763c7be7e21d9ff7660c01b611c13565b7f000000000000000000000000000000000000000000000000000000000000000073ffffffffffffffffffffffffffffffffffffffff167f000000000000000000000000000000000000000000000000000000000000000073ffffffffffffffffffffffffffffffffffffffff163373ffffffffffffffffffffffffffffffffffffffff167fcd3829a3813dc3cdd188fd3d01dcf3268c16be2fdd2dd21d0665418816e460628585604051611bfe929190612836565b60405180910390a4611c0e612138565b919050565b50565b600033905090565b600073ffffffffffffffffffffffffffffffffffffffff168373ffffffffffffffffffffffffffffffffffffffff1603611c8d576040517f08c379a0000000000000000000000000000000000000000000000000000000008152600401611c84906130d6565b60405180910390fd5b600073ffffffffffffffffffffffffffffffffffffffff168273ffffffffffffffffffffffffffffffffffffffff1603611cfc576040517f08c379a0000000000000000000000000000000000000000000000000000000008152600401611cf390613168565b60405180910390fd5b80600160008573ffffffffffffffffffffffffffffffffffffffff1673ffffffffffffffffffffffffffffffffffffffff16815260200190815260200160002060008473ffffffffffffffffffffffffffffffffffffffff1673ffffffffffffffffffffffffffffffffffffffff168152602001908152602001600020819055508173ffffffffffffffffffffffffffffffffffffffff168373ffffffffffffffffffffffffffffffffffffffff167f8c5be1e5ebec7d5bd14f71427d1e84f3dd0314c0f7b2291e5b200ac8c7c3b92583604051611dda9190612769565b60405180910390a3505050565b6000611df384846117b1565b90507fffffffffffffffffffffffffffffffffffffffffffffffffffffffffffffffff8114611e6d5781811015611e5f576040517f08c379a0000000000000000000000000000000000000000000000000000000008152600401611e56906131d4565b60405180910390fd5b611e6c8484848403611c1e565b5b50505050565b600073ffffffffffffffffffffffffffffffffffffffff168373ffffffffffffffffffffffffffffffffffffffff1603611ee2576040517f08c379a0000000000000000000000000000000000000000000000000000000008152600401611ed990613266565b60405180910390fd5b600073ffffffffffffffffffffffffffffffffffffffff168273ffffffffffffffffffffffffffffffffffffffff1603611f51576040517f08c379a0000000000000000000000000000000000000000000000000000000008152600401611f48906132f8565b60405180910390fd5b611f5c8383836126b0565b60008060008573ffffffffffffffffffffffffffffffffffffffff1673ffffffffffffffffffffffffffffffffffffffff16815260200190815260200160002054905081811015611fe2576040517f08c379a0000000000000000000000000000000000000000000000000000000008152600401611fd99061338a565b60405180910390fd5b8181036000808673ffffffffffffffffffffffffffffffffffffffff1673ffffffffffffffffffffffffffffffffffffffff16815260200190815260200160002081905550816000808573ffffffffffffffffffffffffffffffffffffffff1673ffffffffffffffffffffffffffffffffffffffff168152602001908152602001600020600082825401925050819055508273ffffffffffffffffffffffffffffffffffffffff168473ffffffffffffffffffffffffffffffffffffffff167fddf252ad1be2c89b69c2b068fc378daa952ba7f163c4a11628f55a4df523b3ef846040516120d09190612769565b60405180910390a36120e38484846126b5565b50505050565b60026005540361212e576040517f08c379a0000000000000000000000000000000000000000000000000000000008152600401612125906133f6565b60405180910390fd5b6002600581905550565b6001600581905550565b600073ffffffffffffffffffffffffffffffffffffffff168273ffffffffffffffffffffffffffffffffffffffff16036121b1576040517f08c379a00000000000000000000000000000000000000000000000000000000081526004016121a890613488565b60405180910390fd5b6121bd826000836126b0565b60008060008473ffffffffffffffffffffffffffffffffffffffff1673ffffffffffffffffffffffffffffffffffffffff16815260200190815260200160002054905081811015612243576040517f08c379a000000000000000000000000000000000000000000000000000000000815260040161223a9061351a565b60405180910390fd5b8181036000808573ffffffffffffffffffffffffffffffffffffffff1673ffffffffffffffffffffffffffffffffffffffff1681526020019081526020016000208190555081600260008282540392505081905550600073ffffffffffffffffffffffffffffffffffffffff168373ffffffffffffffffffffffffffffffffffffffff167fddf252ad1be2c89b69c2b068fc378daa952ba7f163c4a11628f55a4df523b3ef846040516122f69190612769565b60405180910390a361230a836000846126b5565b505050565b60006123256795e11089126012cc60c01b611c13565b61233967668a90e8a324823b60c01b611c13565b61234d67adb58cb032993f6560c01b611c13565b60038211156124525761236a671beced2b43ab1ee460c01b611c13565b61237e6785c106fb572b362160c01b611c13565b81905061239567fd751de5660b754f60c01b611c13565b6123a967bce905d3d986821560c01b611c13565b600060016002846123ba9190612c01565b6123c49190612b9e565b90506123da67b76741278ae68e7060c01b611c13565b6123ee671f93820476d3f89f60c01b611c13565b5b8181101561244c5761240b674793231edad212cf60c01b611c13565b80915061242267df48d36dc46a60cb60c01b611c13565b60028182856124319190612c01565b61243b9190612b9e565b6124459190612c01565b90506123ef565b506124c9565b61246667b5751d211458857960c01b611c13565b61247a67f376a1034a52fb7e60c01b611c13565b600082146124b357612496678e500d896e06961460c01b611c13565b6124aa67c6e2be7ade49c94b60c01b611c13565b600190506124c8565b6124c7677945b785d72a1cfa60c01b611c13565b5b5b919050565b60006124e467fb80f74426cd0fe460c01b611c13565b6124f867bd0b12833157d97160c01b611c13565b61250c675ebc1e36145d74b660c01b611c13565b8183108061252a57506125296729b934b83460bb9f60c01b6126ba565b5b80156125465750612545671bd436b9dabeb2e060c01b6126c1565b5b6125505781612552565b825b905092915050565b600073ffffffffffffffffffffffffffffffffffffffff168273ffffffffffffffffffffffffffffffffffffffff16036125c9576040517f08c379a00000000000000000000000000000000000000000000000000000000081526004016125c090613586565b60405180910390fd5b6125d5600083836126b0565b80600260008282546125e79190612b9e565b92505081905550806000808473ffffffffffffffffffffffffffffffffffffffff1673ffffffffffffffffffffffffffffffffffffffff168152602001908152602001600020600082825401925050819055508173ffffffffffffffffffffffffffffffffffffffff16600073ffffffffffffffffffffffffffffffffffffffff167fddf252ad1be2c89b69c2b068fc378daa952ba7f163c4a11628f55a4df523b3ef836040516126989190612769565b60405180910390a36126ac600083836126b5565b5050565b505050565b505050565b6000919050565b600060019050919050565b600080fd5b6000819050919050565b6126e4816126d1565b81146126ef57600080fd5b50565b600081359050612701816126db565b92915050565b6000806000606084860312156127205761271f6126cc565b5b600061272e868287016126f2565b935050602061273f868287016126f2565b9250506040612750868287016126f2565b9150509250925092565b612763816126d1565b82525050565b600060208201905061277e600083018461275a565b92915050565b600081519050919050565b600082825260208201905092915050565b60005b838110156127be5780820151818401526020810190506127a3565b60008484015250505050565b6000601f19601f8301169050919050565b60006127e682612784565b6127f0818561278f565b93506128008185602086016127a0565b612809816127ca565b840191505092915050565b6000602082019050818103600083015261282e81846127db565b905092915050565b600060408201905061284b600083018561275a565b612858602083018461275a565b9392505050565b600073ffffffffffffffffffffffffffffffffffffffff82169050919050565b600061288a8261285f565b9050919050565b61289a8161287f565b81146128a557600080fd5b50565b6000813590506128b781612891565b92915050565b600080604083850312156128d4576128d36126cc565b5b60006128e2858286016128a8565b92505060206128f3858286016126f2565b9150509250929050565b60008115159050919050565b612912816128fd565b82525050565b600060208201905061292d6000830184612909565b92915050565b61293c8161287f565b82525050565b60006020820190506129576000830184612933565b92915050565b600080600060608486031215612976576129756126cc565b5b6000612984868287016128a8565b9350506020612995868287016128a8565b92505060406129a6868287016126f2565b9150509250925092565b600060ff82169050919050565b6129c6816129b0565b82525050565b60006020820190506129e160008301846129bd565b92915050565b6000602082840312156129fd576129fc6126cc565b5b6000612a0b848285016128a8565b91505092915050565b600060208284031215612a2a57612a296126cc565b5b6000612a38848285016126f2565b91505092915050565b60008060408385031215612a5857612a576126cc565b5b6000612a66858286016126f2565b9250506020612a77858286016126f2565b9150509250929050565b60008060408385031215612a9857612a976126cc565b5b6000612aa6858286016128a8565b9250506020612ab7858286016128a8565b9150509250929050565b7f496e76616c696420726573657276657300000000000000000000000000000000600082015250565b6000612af760108361278f565b9150612b0282612ac1565b602082019050919050565b60006020820190508181036000830152612b2681612aea565b9050919050565b7f4e487b7100000000000000000000000000000000000000000000000000000000600052601160045260246000fd5b6000612b67826126d1565b9150612b72836126d1565b9250828202612b80816126d1565b91508282048414831517612b9757612b96612b2d565b5b5092915050565b6000612ba9826126d1565b9150612bb4836126d1565b9250828201905080821115612bcc57612bcb612b2d565b5b92915050565b7f4e487b7100000000000000000000000000000000000000000000000000000000600052601260045260246000fd5b6000612c0c826126d1565b9150612c17836126d1565b925082612c2757612c26612bd2565b5b828204905092915050565b7f4e487b7100000000000000000000000000000000000000000000000000000000600052602260045260246000fd5b60006002820490506001821680612c7957607f821691505b602082108103612c8c57612c8b612c32565b5b50919050565b7f5a65726f20696e70757400000000000000000000000000000000000000000000600082015250565b6000612cc8600a8361278f565b9150612cd382612c92565b602082019050919050565b60006020820190508181036000830152612cf781612cbb565b9050919050565b6000606082019050612d136000830186612933565b612d206020830185612933565b612d2d604083018461275a565b949350505050565b612d3e816128fd565b8114612d4957600080fd5b50565b600081519050612d5b81612d35565b92915050565b600060208284031215612d7757612d766126cc565b5b6000612d8584828501612d4c565b91505092915050565b6000604082019050612da36000830185612933565b612db0602083018461275a565b9392505050565b6000612dc2826126d1565b9150612dcd836126d1565b9250828203905081811115612de557612de4612b2d565b5b92915050565b7f456d70747920706f6f6c00000000000000000000000000000000000000000000600082015250565b6000612e21600a8361278f565b9150612e2c82612deb565b602082019050919050565b60006020820190508181036000830152612e5081612e14565b9050919050565b7f496e76616c696420616d6f756e74000000000000000000000000000000000000600082015250565b6000612e8d600e8361278f565b9150612e9882612e57565b602082019050919050565b60006020820190508181036000830152612ebc81612e80565b9050919050565b6000606082019050612ed8600083018661275a565b612ee5602083018561275a565b612ef2604083018461275a565b949350505050565b7f5a65726f20616d6f756e74730000000000000000000000000000000000000000600082015250565b6000612f30600c8361278f565b9150612f3b82612efa565b602082019050919050565b60006020820190508181036000830152612f5f81612f23565b9050919050565b7f496e73756666696369656e74206c6971756964697479206d696e746564000000600082015250565b6000612f9c601d8361278f565b9150612fa782612f66565b602082019050919050565b60006020820190508181036000830152612fcb81612f8f565b9050919050565b7f45524332303a2064656372656173656420616c6c6f77616e63652062656c6f7760008201527f207a65726f000000000000000000000000000000000000000000000000000000602082015250565b600061302e60258361278f565b915061303982612fd2565b604082019050919050565b6000602082019050818103600083015261305d81613021565b9050919050565b7f45524332303a20617070726f76652066726f6d20746865207a65726f2061646460008201527f7265737300000000000000000000000000000000000000000000000000000000602082015250565b60006130c060248361278f565b91506130cb82613064565b604082019050919050565b600060208201905081810360008301526130ef816130b3565b9050919050565b7f45524332303a20617070726f766520746f20746865207a65726f20616464726560008201527f7373000000000000000000000000000000000000000000000000000000000000602082015250565b600061315260228361278f565b915061315d826130f6565b604082019050919050565b6000602082019050818103600083015261318181613145565b9050919050565b7f45524332303a20696e73756666696369656e7420616c6c6f77616e6365000000600082015250565b60006131be601d8361278f565b91506131c982613188565b602082019050919050565b600060208201905081810360008301526131ed816131b1565b9050919050565b7f45524332303a207472616e736665722066726f6d20746865207a65726f20616460008201527f6472657373000000000000000000000000000000000000000000000000000000602082015250565b600061325060258361278f565b915061325b826131f4565b604082019050919050565b6000602082019050818103600083015261327f81613243565b9050919050565b7f45524332303a207472616e7366657220746f20746865207a65726f206164647260008201527f6573730000000000000000000000000000000000000000000000000000000000602082015250565b60006132e260238361278f565b91506132ed82613286565b604082019050919050565b60006020820190508181036000830152613311816132d5565b9050919050565b7f45524332303a207472616e7366657220616d6f756e742065786365656473206260008201527f616c616e63650000000000000000000000000000000000000000000000000000602082015250565b600061337460268361278f565b915061337f82613318565b604082019050919050565b600060208201905081810360008301526133a381613367565b9050919050565b7f5265656e7472616e637947756172643a207265656e7472616e742063616c6c00600082015250565b60006133e0601f8361278f565b91506133eb826133aa565b602082019050919050565b6000602082019050818103600083015261340f816133d3565b9050919050565b7f45524332303a206275726e2066726f6d20746865207a65726f2061646472657360008201527f7300000000000000000000000000000000000000000000000000000000000000602082015250565b600061347260218361278f565b915061347d82613416565b604082019050919050565b600060208201905081810360008301526134a181613465565b9050919050565b7f45524332303a206275726e20616d6f756e7420657863656564732062616c616e60008201527f6365000000000000000000000000000000000000000000000000000000000000602082015250565b600061350460228361278f565b915061350f826134a8565b604082019050919050565b60006020820190508181036000830152613533816134f7565b9050919050565b7f45524332303a206d696e7420746f20746865207a65726f206164647265737300600082015250565b6000613570601f8361278f565b915061357b8261353a565b602082019050919050565b6000602082019050818103600083015261359f81613563565b905091905056fea26469706673582212205c8df297817cfbd464af2236bc8d88a116365690d4898a01e1fbd44b8387c2a764736f6c63430008130033",
  "linkReferences": {},
  "deployedLinkReferences": {}
}